:020000040800F2
:100000000050002045100008710F0008770F00080D
:100010007D0F0008830F0008890F00080000000012
:100020000000000000000000000000008F0F00082A
:100030009B0F000800000000A70F0008B30F000886
:100040008D1000088D1000088D1000088D1000081C
:100050008D1000088D1000088D100008BF0F0008DB
:100060008D1000088D1000088D1000088D100008FC
:100070008D1000088D1000088D1000088D100008EC
:100080008D1000088D1000088D1000088D100008DC
:100090008D1000088D1000088D1000088D100008CC
:1000A0008D1000088D1000088D1000088D100008BC
:1000B0008D1000088D1000088D1000088D100008AC
:1000C0008D1000088D1000088D1000088D1000089C
:1000D0008D1000088D1000088D1000088D1000088C
:1000E0008D1000088D1000088D1000080000000021
:1000F0000000000000000000000000000000000000
:0C01000000000000000000005FF808F1A3
:10010C0010B5054C237833B9044B13B10448AFF345
:10011C0000800123237010BD70000020000000003F
:10012C00A03D000808B5034B1BB103490348AFF3CE
:10013C00008008BD0000000074000020A03D0008F5
:10014C00034613F8012B002AFBD1181A013870470B
:10015C00B0B493B000AF786040F2B1133B610723A9
:10016C007B610723BB610123FB61FF233B6264239B
:10017C007B620823BB627B681D4607F10C040FCC25
:10018C000FC50FCC0FC50FCC0FC594E8070085E841
:10019C00070078684C37BD46B0BC704780B582B05C
:1001AC0000AF78607B68D86A7B681B8E002219468A
:1001BC0001F080FA0A2000F0C7FF7B68D86A7B68E0
:1001CC001B8E0122194601F075FA0A2000F0BCFFC3
:1001DC0000BF0837BD4680BD80B584B000AFF86065
:1001EC00B9603B601346FB80FB68586AFB681B8D4B
:1001FC000022194601F05EFAFB68186AFA884FF47F
:10020C00FA63B96802F0C6FB00BFFB681B6A1846AC
:10021C0002F0C6FF0346012BF7D1FB68186A3A8B34
:10022C004FF4FA63396802F0F9FC00BFFB681B6AF3
:10023C00184602F0B5FF0346012BF7D1FB68586A4C
:10024C00FB681B8D0122194601F034FA00BF1037F0
:10025C00BD4680BD80B584B000AFF860B9603B602E
:10026C001346FB80FB68586AFB681B8D00221946FD
:10027C0001F020FAFB68186AFA884FF4FA63B9683F
:10028C0002F088FB00BFFB681B6A184602F088FF6F
:10029C000346012BF7D1FB68186A3A8B4FF4FA63CB
:1002AC00396802F077FB00BFFB681B6A184602F046
:1002BC0077FF0346012BF7D1FB68586AFB681B8D4F
:1002CC000122194601F0F6F900BF1037BD4680BD7A
:1002DC0080B584B000AF786039600121786800F097
:1002EC0046F80346BB733B68002B07D1BB7B23F05E
:1002FC000703FB737B6800221A602EE03B68012B1E
:10030C000CD197F90E3023F007035BB243F00103D5
:10031C005BB2FB737B6801221A601EE03B68032B07
:10032C000CD197F90E3023F007035BB243F00303B3
:10033C005BB2FB737B6803221A600EE03B68052BF3
:10034C000BD197F90E3023F007035BB243F0050392
:10035C005BB2FB737B6805221A60FB7B1A4601219A
:10036C00786800F01EF800BF1037BD4680BD80B520
:10037C0086B002AF78600B46FB70FB7803F07F030E
:10038C00DBB2BB7307F10F0307F10E0101220092E0
:10039C0001227868FFF720FFFB7B18461037BD461B
:1003AC0080BD80B586B002AF78600B46FB701346FB
:1003BC00BB70FB7863F07F03DBB2FB73BB1C07F1F4
:1003CC000F010122009201227868FFF743FF00BF62
:1003DC001037BD4680BD80B586B000AFF8607A603E
:1003EC001A460B46FB721346BB72FB7A63F07F0313
:1003FC00DBB2FB75FB68586AFB681B8D0022194643
:10040C0001F058F9FB68186A07F117014FF4FA6309
:10041C00012202F0BFFA00BFFB681B6A184602F00B
:10042C00BFFE0346012BF7D1FB68186ABB7A9AB260
:10043C004FF4FA63796802F0ADFA00BFFB681B6AEF
:10044C00184602F0ADFE0346012BF7D1FB68586A43
:10045C00FB681B8D0122194601F02CF900BF1837DF
:10046C00BD4680BDB0B584B000AF786039603B68E4
:10047C00DA171C4615464FF000024FF00003EB0450
:10048C0043EA5433E2044FF000004FF000015009EE
:10049C0040EAC3605909C7E90201D7E902014FF0EC
:1004AC0000024FF00003020C42EA01420B0CD3B2E3
:1004BC001A4606217868FFF774FFD7E902014FF05E
:1004CC0000024FF00003020A42EA01620B0AD3B2A7
:1004DC001A4607217868FFF764FF3B7A1A46082111
:1004EC007868FFF75EFF00BF1037BD46B0BD80B522
:1004FC0084B000AF786039601E217868FFF737FF51
:10050C000346FB733B681B015AB297F90F3003F09B
:10051C000F035BB213435BB2BB73BB7B1A461E214A
:10052C007868FFF73EFF00BF1037BD4680BD80B531
:10053C0082B000AF78600B46FB70FB781A4609213D
:10054C007868FFF72EFF00BF0837BD4680BD00005E
:10055C0080B584B000AF786039600023FB733B68D2
:10056C00782B09DC3B682D3B114A82FB031252109D
:10057C00DB17D31AFB730BE03B68F02B08DC3B68F2
:10058C001E330B4A82FB03129210DB17D31AFB7338
:10059C00FB7B03F01F03DBB243F02003DBB21A46F4
:1005AC000B217868FFF7FDFE00BF1037BD4680BDFC
:1005BC006766666680B582B000AF78600B46FB70EC
:1005CC00FB781A4639217868FFF7EBFE00BF083735
:1005DC00BD4680BD80B584B000AF78607868FFF709
:1005EC00DDFD42217868FFF7C2FE0346FB73FB7BFF
:1005FC00122B01D0942367E000217868FFF768FE86
:10060C00802201217868FFF7CCFE7B685B68194675
:10061C007868FFF727FF7B685B69DBB2194678685F
:10062C00FFF785FF7B689B6919467868FFF790FF99
:10063C0023220C217868FFF7B4FE1E217868FFF79F
:10064C0096FE0346FB73FB7B43F00403BB73BB7B3F
:10065C001A461E217868FFF7A4FE7B689B68194632
:10066C007868FFF744FFFF221F217868FFF799FE97
:10067C007B68DB681B015AB27B681B695B005BB251
:10068C0013435BB2BB73BB7B1A461D217868FFF723
:10069C0088FE7B68DB691B12DBB21A462021786866
:1006AC00FFF77FFE7B68DB69DBB21A462121786895
:1006BC00FFF777FE002240217868FFF772FE0121D8
:1006CC007868FFF705FEC82318461037BD4680BD75
:1006DC0080B588B000AFF860B96011461A460B4679
:1006EC00FB711346BB80FB681B68FB610121F8683A
:1006FC00FFF7EEFDFF221221F868FFF752FE0E21E4
:10070C00F868FFF734FE0346FB76FB7E1A460D2194
:10071C00F868FFF746FEFB791A462221F868FFF7C6
:10072C0040FEFB79BA680021F868FFF754FE0321FC
:10073C00F868FFF7CDFD00F0FDFC78611221F86838
:10074C00FFF715FE0346FB76FB7E03F00803002B38
:10075C000AD0FF221221F868FFF723FEF969F86826
:10076C00FFF7B6FD012311E000F0E4FC02467B69C3
:10077C00D21ABB889A42E1D9FF221221F868FFF7FE
:10078C0010FEF969F868FFF7A3FD0023184620371F
:10079C00BD4680BD80B586B002AF0346FB71FB79C8
:1007AC0023F00F03FB73FB791B01BB73FB7B43F043
:1007BC000C03DBB23B72FB7B43F00803DBB27B72B6
:1007CC00BB7B43F00C03DBB2BB72BB7B43F0080377
:1007DC00DBB2FB7207F108026423009304234E2161
:1007EC00034801F0FFF800BF1037BD4680BD00BFC5
:1007FC008C00002080B586B002AF0346FB71FB79FC
:10080C0023F00F03FB73FB791B01BB73FB7B43F0E2
:10081C000D03DBB23B72FB7B43F00903DBB27B7253
:10082C00BB7B43F00D03DBB2BB72BB7B43F0090314
:10083C00DBB2FB7207F108026423009304234E2100
:10084C00034801F0CFF800BF1037BD4680BD00BF94
:10085C008C00002080B500AF3320FFF79BFF3220C7
:10086C00FFF798FF322000F06FFC2820FFF792FF73
:10087C00322000F069FC0120FFF78CFF322000F0E1
:10088C0063FC0620FFF786FF322000F05DFC0C2095
:10089C00FFF780FF322000F057FC0220FFF77AFFB1
:1008AC00322000F051FC8020FFF774FF00BF80BDA8
:1008BC0080B582B000AF786006E07B685A1C7A6025
:1008CC001B781846FFF796FF7B681B78002BF4D13A
:1008DC0000BF00BF0837BD4680BD80B584B000AFF7
:1008EC00786039607B68012B08D17B68DAB23B6891
:1008FC00DBB21344DBB27F33FB7322E07B68022B49
:10090C0009D13B68DBB24033DBB25BB263F07F03EF
:10091C005BB2FB7315E07B68032B09D13B68DBB240
:10092C001433DBB25BB263F07F035BB2FB7308E0A2
:10093C003B68DBB25433DBB25BB263F07F035BB278
:10094C00FB73FB7B1846FFF725FF00BF1037BD4636
:10095C0080BD0000B0B5AAB000AF00F093FB00F072
:10096C00FFF800F0A7F900F06FF900F03FF9FFF77E
:10097C0071FF00210120FFF7B0FF6B48FFF798FFD4
:10098C006A4C3B461846FFF7E3FB25463C460FCC2A
:10099C000FC50FCC0FC50FCC0FC594E8070085E829
:1009AC000700624B624A1A62604B624A5A625F4BA2
:1009BC0010221A855D4B604ADA625C4B01221A8662
:1009CC005A4B5C4A5A63594B02221A87574B40F2D6
:1009DC00B1125A60554B07229A60544B0722DA60C9
:1009EC00524B01221A61514BFF225A614F4B782214
:1009FC009A614E4B0A22DA614C48FFF7CFFB00217B
:100A0C000220FFF76AFF02E04C48FFF751FF47480E
:100A1C00FFF7E0FD0346C82BF6D14948FFF748FF26
:100A2C0012214248FFF7C6FD042226213F48FFF75A
:100A3C00B8FC00F07FFB0246424B1B68D31AB3F59F
:100A4C00FA7FF6D300F076FB03463E4A13603E4B2A
:100A5C001B6801333C4A13603B4B1A6807F1900347
:100A6C003A49184602F01CFD07F190031846FFF7AF
:100A7C0067FB0346DAB207F190014FF4FA632B4897
:100A8C00FFF726FE034687F8A73097F8A730012B0F
:100A9C0027D14FF400512E4800F024FE00210120F4
:100AAC00FFF71BFF07F1900307F17C00294A142183
:100ABC0002F0C2FC07F17C031846FFF7F9FE224B4B
:100ACC001B6807F16800244A112102F0B5FC0021D3
:100ADC000220FFF702FF07F168031846FFF7E8FE54
:100AEC00A7E700210120FFF7F8FE07F1900307F1BB
:100AFC005400184A142102F09FFC07F154031846C5
:100B0C00FFF7D6FE104B1B6807F14000134A11216A
:100B1C0002F092FC00210220FFF7DFFE07F14003F8
:100B2C001846FFF7C5FE84E7B83D000838010020E1
:100B3C00E000002000080140000C0140CC3D000802
:100B4C00E03D00087401002078010020F03D000811
:100B5C0000100140F83D0008043E0008183E000853
:100B6C0080B590B000AF07F1180328220021184679
:100B7C0002F05AFC3B1D00221A605A609A60DA603F
:100B8C001A610123BB614FF48033FB6100233B628C
:100B9C000123BB6202237B634FF48033BB634FF4AE
:100BAC00E013FB6307F11803184601F073FA0346D0
:100BBC00002B01D000F016F90F237B600223BB60E1
:100BCC000023FB604FF480633B6100237B613B1D82
:100BDC000221184601F0E0FC0346002B01D000F086
:100BEC0001F900BF4037BD4680BD000080B500AFA5
:100BFC00124B134A1A60114B124A5A600F4B0022C7
:100C0C009A600E4B0022DA600C4B4FF480421A6152
:100C1C000A4B00225A61094B00229A61074B0022B1
:100C2C00DA61064B00221A62044800F097FD034675
:100C3C00002B01D000F0D6F800BF80BD8C00002046
:100C4C0000540040A086010080B500AF174B184A35
:100C5C001A60164B4FF482725A60144B00229A6041
:100C6C00124B0022DA60114B00221A610F4B00224A
:100C7C005A610E4B4FF400729A610C4B1022DA61E0
:100C8C000A4B00221A62094B00225A62074B0022BF
:100C9C009A62064B0A22DA62044801F0F7FD034619
:100CAC00002B01D000F09EF800BF80BDE0000020BA
:100CBC000030014080B588B000AF07F1100300226E
:100CCC001A605A609A60DA60414B9B69404A43F063
:100CDC00100393613E4B9B6903F01003FB60FB68B0
:100CEC003B4B9B693A4A43F020039361384B9B6919
:100CFC0003F02003BB60BB68354B9B69344A43F05F
:100D0C0004039361324B9B6903F004037B607B68A3
:100D1C002F4B9B692E4A43F0080393612C4B9B6924
:100D2C0003F008033B603B6800224FF40051294854
:100D3C0000F0C0FC01221021274800F0BBFC01226E
:100D4C000121264800F0B6FC4FF400533B6101230F
:100D5C007B610123BB610223FB6107F11003194680
:100D6C001C4800F023FB02233B611D4B7B610123DC
:100D7C00BB6107F110031946174800F017FB10234D
:100D8C003B6101237B610023BB610223FB6107F103
:100D9C0010031946104800F009FB01233B610123A5
:100DAC007B610023BB610223FB6107F11003194631
:100DBC000A4800F0FBFA00220021072000F0BFFADD
:100DCC00072000F0D8FA00BF2037BD4680BD00BF19
:100DDC00001002400010014000080140000C0140CE
:100DEC000000111080B400AF72B600BFFEE7000027
:100DFC0080B485B000AF154B9B69144A43F00103D6
:100E0C009361124B9B6903F00103BB60BB680F4BF2
:100E1C00DB690E4A43F08053D3610C4BDB6903F062
:100E2C0080537B607B680A4B5B68FB60FB6823F03C
:100E3C00E063FB60FB6843F00073FB60044AFB68F3
:100E4C00536000BF1437BD4680BC70470010024091
:100E5C000000014080B588B000AF786007F1100346
:100E6C0000221A605A609A60DA607B681B68154A27
:100E7C00934223D1144B9B69134A43F008039361AB
:100E8C00114B9B6903F00803FB60FB68C0233B61BB
:100E9C0012237B610323FB6107F1100319460B48F6
:100EAC0000F084FA084BDB69074A43F40013D36162
:100EBC00054BDB6903F40013BB60BB6800BF203734
:100ECC00BD4680BD0054004000100240000C0140A3
:100EDC0080B588B000AF786007F1100300221A606B
:100EEC005A609A60DA607B681B681B4A93422FD168
:100EFC001A4B9B69194A43F480539361174B9B69B6
:100F0C0003F48053FB60FB68144B9B69134A43F05A
:100F1C0004039361114B9B6903F00403BB60BB6832
:100F2C00A0233B6102237B610323FB6107F11003C8
:100F3C0019460B4800F03AFA40233B6100237B61D1
:100F4C000023BB6107F110031946054800F02EFA87
:100F5C0000BF2037BD4680BD00300140001002406C
:100F6C000008014080B400AFFEE780B400AFFEE79C
:100F7C0080B400AFFEE780B400AFFEE780B400AFF2
:100F8C00FEE780B400AF00BFBD4680BC704780B4A4
:100F9C0000AF00BFBD4680BC704780B400AF00BF3F
:100FAC00BD4680BC704780B500AF00F0B1F800BF03
:100FBC0080BD80B500AF022000F0AEFB00BF80BD4D
:100FCC0080B586B000AF7860144A154BD31A7B619C
:100FDC007B693B61134B1B68002B02D1114B124AEE
:100FEC001A60104B1A687B6813443A699A4207D20C
:100FFC0002F0F0F903460C221A604FF0FF3309E0BF
:10100C00084B1B68FB60074B1A687B681344054A46
:10101C001360FB6818461837BD4680BD0050002091
:10102C00000400007C0100209801002080B400AF77
:10103C0000BFBD4680BC7047FFF7F8FF0B480C495A
:10104C000C4A002302E0D458C4500433C4188C4218
:10105C00F9D3094A094C002301E013600432A2427F
:10106C00FBD302F0BDF9FFF775FC704700000020C0
:10107C0070000020943E00087000002094010020B5
:10108C00FEE7000080B500AF084B1B68074A43F031
:10109C0010031360032000F047F90F2000F008F84C
:1010AC00FFF7A6FE0023184680BD00BF00200240BB
:1010BC0080B582B000AF7860124B1A68124B1B7867
:1010CC0019464FF47A73B3FBF1F3B2FBF3F3184602
:1010DC0000F05FF90346002B01D001230EE07B6882
:1010EC000F2B0AD8002279684FF0FF3000F027F957
:1010FC00064A7B681360002300E00123184608377A
:10110C00BD4680BD00000020080000200400002027
:10111C0080B400AF054B1B781A46054B1B68134473
:10112C00034A136000BFBD4680BC70470800002016
:10113C008001002080B400AF024B1B681846BD46EE
:10114C0080BC70478001002080B584B000AF78600F
:10115C00FFF7F0FFB8607B68FB60FB68B3F1FF3F03
:10116C0005D00A4B1B781A46FB681344FB6000BF82
:10117C00FFF7E0FF0246BB68D31AFA689A42F7D829
:10118C0000BF00BF1037BD4680BD00BF0800002067
:10119C0080B485B000AF78607B6803F00703FB6018
:1011AC000C4BDB68BB60BA684FF6FF031340BB60A7
:1011BC00FB681A02BB68134343F0BF6343F400336C
:1011CC00BB60044ABB68D36000BF1437BD4680BC0B
:1011DC00704700BF00ED00E080B400AF044BDB684B
:1011EC001B0A03F007031846BD4680BC704700BFBE
:1011FC0000ED00E080B483B000AF0346FB7197F9BB
:10120C000730002B0BDBFB7903F01F02064997F923
:10121C0007305B09012000FA02F241F8232000BFDD
:10122C000C37BD4680BC704700E100E080B483B051
:10123C0000AF03463960FB7197F90730002B0ADBCE
:10124C003B68DAB20C4997F907301201D2B20B4461
:10125C0083F800230AE03B68DAB20849FB7903F013
:10126C000F03043B1201D2B20B441A7600BF0C37A9
:10127C00BD4680BC704700BF00E100E000ED00E01F
:10128C0080B489B000AFF860B9607A60FB6803F095
:10129C000703FB61FB69C3F10703042B28BF04237D
:1012AC00BB61FB690433062B02D9FB69033B00E0ED
:1012BC0000237B614FF0FF32BB6902FA03F3DA4380
:1012CC00BB681A407B699A404FF0FF317B6901FA89
:1012DC0003F3D9437B680B40134318462437BD46B0
:1012EC0080BC704780B582B000AF78607B68013BF2
:1012FC00B3F1807F01D301230FE00A4A7B68013BE5
:10130C0053600F214FF0FF30FFF790FF054B002289
:10131C009A60044B07221A60002318460837BD4612
:10132C0080BD00BF10E000E080B582B000AF7860F7
:10133C007868FFF72DFF00BF0837BD4680BD80B52C
:10134C0086B000AF0346B9607A60FB7300237B6103
:10135C00FFF742FF78617A68B9687869FFF790FF08
:10136C00024697F90F3011461846FFF75FFF00BF92
:10137C001837BD4680BD80B582B000AF0346FB7107
:10138C0097F907301846FFF735FF00BF0837BD4601
:10139C0080BD80B582B000AF78607868FFF7A2FF9F
:1013AC00034618460837BD4680BD000080B48BB09C
:1013BC0000AF7860396000237B6200233B6269E1F7
:1013CC0001227B6A02FA03F3FB613B681B68FA6932
:1013DC001340BB61BA69FB699A4240F058813B6883
:1013EC005B689A4A93425ED0984A934275D8984A61
:1013FC00934258D0964A93426FD8964A934252D011
:10140C00944A934269D8944A93424CD0924A93425C
:10141C0063D8924A934246D0904A93425DD8122B9D
:10142C002AD8122B59D801A252F823F0B314000871
:10143C008D1400089F140008E1140008E71400083C
:10144C00E7140008E7140008E7140008E714000884
:10145C00E7140008E7140008E7140008E714000874
:10146C00E7140008E7140008E7140008E714000864
:10147C0095140008A9140008794A934213D02CE063
:10148C003B68DB683B6229E03B68DB6804333B620A
:10149C0024E03B68DB6808333B621FE03B68DB6899
:1014AC000C333B621AE03B689B68002B02D104238F
:1014BC003B6213E03B689B68012B05D108233B6220
:1014CC007B68FA691A6109E008233B627B68FA6958
:1014DC005A6103E000233B6200E000BFBB69FF2BB5
:1014EC0001D87B6801E07B6804337B61BB69FF2B0F
:1014FC0002D87B6A9B0002E07B6A083B9B003B6145
:10150C007B691A680F213B6901FA03F3DB431A402C
:10151C00396A3B6901FA03F31A437B691A603B6829
:10152C005B6803F08053002B00F0B1804D4B9B693E
:10153C004C4A43F0010393614A4B9B6903F001034E
:10154C00BB60BB68484A7B6A9B08023352F8233065
:10155C00FB607B6A03F003039B000F2202FA03F388
:10156C00DB43FA681340FB607B68404A934213D01C
:10157C007B683F4A93420DD07B683E4A934207D02A
:10158C007B683D4A934201D1032306E0042304E027
:10159C00022302E0012300E000237A6A02F0030236
:1015AC0092009340FA681343FB602F497B6A9B08B7
:1015BC000233FA6841F823203B685B6803F480131C
:1015CC00002B06D02D4B9A682C49BB6913438B60BA
:1015DC0006E02A4B9A68BB69DB43284913408B60B1
:1015EC003B685B6803F40013002B06D0234BDA68CE
:1015FC002249BB691343CB6006E0204BDA68BB6918
:10160C00DB431E491340CB603B685B6803F400333B
:10161C00002B06D0194B5A681849BB6913434B6011
:10162C0006E0164B5A68BB69DB43144913404B6008
:10163C003B685B6803F48033002B21D00F4B1A6896
:10164C000E49BB6913430B6021E000BF0000321050
:10165C0000003110000022100000211000001210B8
:10166C000000111000100240000001400008014071
:10167C00000C014000100140001401400004014026
:10168C000B4B1A68BB69DB43094913400B607B6A3F
:10169C0001337B623B681A687B6A22FA03F3002BE6
:1016AC007FF48EAE00BF00BF2C37BD4680BC7047A8
:1016BC000004014080B483B000AF78600B467B809F
:1016CC0013467B707B78002B03D07A887B681A6179
:1016DC0003E07B881A047B681A6100BF0C37BD4697
:1016EC0080BC704780B485B000AF78600B467B80BF
:1016FC007B68DB68FB607A88FB6813401A04FB6824
:10170C00D9437B880B401A437B681A6100BF14379E
:10171C00BD4680BC7047000080B582B000AF034668
:10172C00FB80084B5A69FB881340002B06D0054AF6
:10173C00FB885361FB88184600F006F800BF083799
:10174C00BD4680BD0004014080B483B000AF0346A9
:10175C00FB8000BF0C37BD4680BC704780B584B0A1
:10176C0000AF78607B68002B01D101232BE17B68F3
:10177C0093F83D30DBB2002B06D17B68002283F856
:10178C003C207868FFF766FB7B68242283F83D20B9
:10179C007B681B681A687B681B6822F001021A6060
:1017AC007B681B681A687B681B6842F400421A60ED
:1017BC007B681B681A687B681B6822F400421A60FD
:1017CC0001F032F8F8607B685B68814A934207D875
:1017DC00FB68804A934294BF01230023DBB206E0EE
:1017EC00FB687D4A934294BF01230023DBB2002B9C
:1017FC0001D00123E7E0FB68784AA2FB03239B0C92
:10180C00BB607B681B685B6823F03F017B681B68CF
:10181C00BA680A435A607B681B681B6A23F03F0155
:10182C007B685B686A4A934202D8BB68013309E063
:10183C00BB684FF4967202FB03F3694AA2FB0323C5
:10184C009B0901337A6812680B4313627B681B682F
:10185C00DB6923F44F4222F0FF027B685B685C4932
:10186C008B4219D8FB68591E7B685B685B00B1FB27
:10187C00F3F3591C40F6FC730B40002B0AD0FB68A9
:10188C00591E7B685B685B00B1FBF3F30133C3F358
:10189C000B0351E004234FE07B689B68002B11D1B4
:1018AC00FB68581E7B6859680B465B000B44B0FB09
:1018BC00F3F30133C3F30B03002B0CBF0123002301
:1018CC00DBB212E0FB68581E7B6859680B469B0024
:1018DC000B4499000B44B0FBF3F30133C3F30B033C
:1018EC00002B0CBF01230023DBB2002B01D0012302
:1018FC0022E07B689B68002B0ED1FB68581E7B682E
:10190C0059680B465B000B44B0FBF3F30133C3F394
:10191C000B0343F400430FE0FB68581E7B685968C7
:10192C000B469B000B4499000B44B0FBF3F30133C3
:10193C00C3F30B0343F44043796809681343CB6149
:10194C007B681B681B6823F0C0017B68DA697B68C5
:10195C001B6A1A437B681B680A431A607B681B6806
:10196C009B6823F4034323F0FF037A6811697A68B8
:10197C00D26811437A6812680B4393607B681B68CA
:10198C00DB6823F0FF017B685A697B689B691A430B
:10199C007B681B680A43DA607B681B681A687B6883
:1019AC001B6842F001021A607B6800221A647B6893
:1019BC00202283F83D207B6800221A637B6800227A
:1019CC0083F83E20002318461037BD4680BD00BF6B
:1019DC00A08601007F841E00FF083D0083DE1B43B0
:1019EC00D34D621080B588B002AFF8607A601A46A9
:1019FC000B467B8113463B81FFF79CFB7861FB68B0
:101A0C0093F83D30DBB2202B40F0E0807B690093F3
:101A1C00192301227049F86800F064F90346002B81
:101A2C0001D00223D3E0FB6893F83C30012B01D1A9
:101A3C000223CCE0FB68012283F83C20FB681B6886
:101A4C001B6803F00103012B07D0FB681B681A68A5
:101A5C00FB681B6842F001021A60FB681B681A687D
:101A6C00FB681B6822F400621A60FB68212283F871
:101A7C003D20FB68102283F83E20FB6800221A648C
:101A8C00FB687A685A62FB683A895A85FB685B8DF9
:101A9C009AB2FB681A85FB68504ADA6279897B69CD
:101AAC003A6AF86800F09CF80346002B01D0012339
:101ABC008DE000233B61FB681B685B693B61FB6845
:101ACC001B689B693B613B6966E07A69396AF86817
:101ADC0000F022FA0346002B0DD0FB681B6C042B84
:101AEC0007D1FB681B681A68FB681B6842F400721C
:101AFC001A6001236BE0FB685B6A1A78FB681B6851
:101B0C001A61FB685B6A5A1CFB685A62FB685B8D46
:101B1C009BB2013B9AB2FB685A85FB681B8D013B5B
:101B2C009AB2FB681A85FB681B685B6903F00403B7
:101B3C00042B1BD1FB681B8D002B17D0FB685B6A39
:101B4C001A78FB681B681A61FB685B6A5A1CFB6895
:101B5C005A62FB685B8D9BB2013B9AB2FB685A855B
:101B6C00FB681B8D013B9AB2FB681A857A69396A4E
:101B7C00F86800F019FA0346002B0DD0FB681B6CBB
:101B8C00042B07D1FB681B681A68FB681B6842F4BE
:101B9C0000721A6001231AE0FB681B8D002B94D194
:101BAC00FB681B681A68FB681B6842F400721A60B9
:101BBC00FB68202283F83D20FB68002283F83E203E
:101BCC00FB68002283F83C20002300E00223184627
:101BDC001837BD4680BD00BF020010000000FFFF9B
:101BEC0080B588B002AFF8607A603B600B467B81B1
:101BFC00FB68DB6A7B617B69082B06D07B69012B58
:101C0C0003D07B6913F5803F08D1FB681B681A6809
:101C1C00FB681B6842F480721A600BE0FB681B6B5C
:101C2C00122B07D1FB681B681A68FB681B6842F40F
:101C3C0080721A603B6800937B6800224FF00111A0
:101C4C00F86800F04FF80346002B0DD0FB681B68BA
:101C5C001B6803F48073B3F5807F03D1FB684FF4EA
:101C6C0000721A64032335E0FB681B69B3F5804FDF
:101C7C0008D17B89DBB21A46FB681B6802F0FE02B6
:101C8C001A611BE07B89DB11DBB203F00603DBB2CC
:101C9C0063F00F03DAB2FB681B681A613B687A6861
:101CAC000E49F86800F098F80346002B01D0012388
:101CBC0010E07B89DAB2FB681B681A613B687A68B2
:101CCC000749F86800F088F80346002B01D001237F
:101CDC0000E0002318461837BD4680BD08000100FF
:101CEC000200010080B584B000AFF860B9603B60C1
:101CFC001346FB7148E03B68B3F1FF3F44D0FFF75C
:101D0C0019FA0246BB69D31A3A689A4202D33B6865
:101D1C00002B39D1BB681B0CDBB2012B0DD1FB683E
:101D2C001B685B69DA43BB6813409BB2002B0CBF8A
:101D3C0001230023DBB21A460CE0FB681B689B698D
:101D4C00DA43BB6813409BB2002B0CBF012300236A
:101D5C00DBB21A46FB799A4216D1FB6800221A6351
:101D6C00FB68202283F83D20FB68002283F83E208C
:101D7C00FB681B6C43F02002FB681A64FB680022B2
:101D8C0083F83C20012323E0BB681B0CDBB2012B46
:101D9C000DD1FB681B685B69DA43BB6813409BB2CF
:101DAC00002B0CBF01230023DBB21A460CE0FB68AE
:101DBC001B689B69DA43BB6813409BB2002B0CBFBA
:101DCC0001230023DBB21A46FB799A4293D00023FD
:101DDC0018461037BD4680BD80B584B000AFF860A2
:101DEC00B9607A603B6071E0FB681B685B6903F467
:101DFC008063B3F5806F23D1FB681B681A68FB689E
:101E0C001B6842F400721A60FB681B686FF48062F6
:101E1C005A61FB6800221A63FB68202283F83D207C
:101E2C00FB68002283F83E20FB681B6C43F0040225
:101E3C00FB681A64FB68002283F83C20012367E0EE
:101E4C007B68B3F1FF3F41D0FFF774F902463B6862
:101E5C00D31A7A689A4202D37B68002B36D1BB68BE
:101E6C001B0CDBB2012B0CD1FB681B685B69DA43E2
:101E7C00BB6813409BB2002B14BF01230023DBB2C1
:101E8C000BE0FB681B689B69DA43BB6813409BB291
:101E9C00002B14BF01230023DBB2002B16D0FB68F0
:101EAC0000221A63FB68202283F83D20FB68002285
:101EBC0083F83E20FB681B6C43F02002FB681A641D
:101ECC00FB68002283F83C20012321E0BB681B0C3B
:101EDC00DBB2012B0CD1FB681B685B69DA43BB6876
:101EEC0013409BB2002B14BF01230023DBB20BE089
:101EFC00FB681B689B69DA43BB6813409BB2002BE1
:101F0C0014BF01230023DBB2002B7FF46DAF002341
:101F1C0018461037BD4680BD80B584B000AFF86060
:101F2C00B9607A6034E0F86800F086F80346002B5C
:101F3C0001D0012334E0BB68B3F1FF3F28D0FFF799
:101F4C00F9F802467B68D31ABA689A4202D3BB6886
:101F5C00002B1DD1FB681B685B6903F08003802B91
:101F6C0016D0FB6800221A63FB68202283F83D2000
:101F7C00FB68002283F83E20FB681B6C43F02002B8
:101F8C00FB681A64FB68002283F83C20012307E0FD
:101F9C00FB681B685B6903F08003802BC3D10023B3
:101FAC0018461037BD4680BD80B584B000AFF860D0
:101FBC00B9607A6034E0F86800F03EF80346002B14
:101FCC0001D0012334E0BB68B3F1FF3F28D0FFF709
:101FDC00B1F802467B68D31ABA689A4202D3BB683E
:101FEC00002B1DD1FB681B685B6903F00403042BF9
:101FFC0016D0FB6800221A63FB68202283F83D2070
:10200C00FB68002283F83E20FB681B6C43F0200227
:10201C00FB681A64FB68002283F83C20012307E06C
:10202C00FB681B685B6903F00403042BC3D100231A
:10203C0018461037BD4680BD80B483B000AF7860C1
:10204C007B681B685B6903F48063B3F5806F1BD1FD
:10205C007B681B686FF480625A617B6800221A638C
:10206C007B68202283F83D207B68002283F83E2089
:10207C007B681B6C43F004027B681A647B6800224B
:10208C0083F83C20012300E0002318460C37BD46A2
:10209C0080BC704780B586B000AF78607B68002B41
:1020AC0001D1012372E27B681B6803F00103002B52
:1020BC0000F08780924B5B6803F00C03042B0CD070
:1020CC008F4B5B6803F00C03082B12D18C4B5B68B5
:1020DC0003F48033B3F5803F0BD1894B1B6803F4B9
:1020EC000033002B6CD07B685B68002B68D101231C
:1020FC004CE27B685B68B3F5803F06D1804B1B6874
:10210C007F4A43F4803313602EE07B685B68002BBE
:10211C000CD17B4B1B687A4A23F480331360784BC9
:10212C001B68774A23F4802313601DE07B685B688F
:10213C00B3F5A02F0CD1724B1B68714A43F480236A
:10214C0013606F4B1B686E4A43F4803313600BE0D3
:10215C006B4B1B686A4A23F480331360684B1B6813
:10216C00674A23F4802313607B685B68002B13D0D1
:10217C00FEF7E0FF386108E0FEF7DCFF02463B6942
:10218C00D31A642B01D9032300E25D4B1B6803F4C3
:10219C000033002BF0D014E0FEF7CCFF386108E0E0
:1021AC00FEF7C8FF02463B69D31A642B01D90323FF
:1021BC00ECE1534B1B6803F40033002BF0D100E02F
:1021CC0000BF7B681B6803F00203002B63D04C4BF1
:1021DC005B6803F00C03002B0BD0494B5B6803F0DE
:1021EC000C03082B1CD1464B5B6803F48033002B8B
:1021FC0016D1434B1B6803F00203002B05D07B6800
:10220C001B69012B01D00123C0E13D4B1B6823F05E
:10221C00F8027B685B69DB00394913430B603AE0D9
:10222C007B681B69002B20D0364B01221A60FEF70D
:10223C0081FF386108E0FEF77DFF02463B69D31A47
:10224C00022B01D90323A1E12D4B1B6803F00203E0
:10225C00002BF0D02A4B1B6823F0F8027B685B69DB
:10226C00DB00274913430B6015E0264B00221A6054
:10227C00FEF760FF386108E0FEF75CFF02463B6941
:10228C00D31A022B01D9032380E11D4B1B6803F0E9
:10229C000203002BF0D17B681B6803F00803002BB2
:1022AC003AD07B689B69002B19D0174B01221A601E
:1022BC00FEF740FF386108E0FEF73CFF02463B6941
:1022CC00D31A022B01D9032360E10D4B5B6A03F097
:1022DC000203002BF0D0012000F0BAFA1CE00A4BEC
:1022EC0000221A60FEF726FF38610FE0FEF722FF8E
:1022FC0002463B69D31A022B08D9032346E100BFDF
:10230C00001002400000424280044242924B5B6A41
:10231C0003F00203002BE9D17B681B6803F0040374
:10232C00002B00F0A6800023FB758B4BDB6903F0C0
:10233C008053002B0DD1884BDB69874A43F08053C7
:10234C00D361854BDB6903F08053BB60BB68012311
:10235C00FB75824B1B6803F48073002B18D17F4BE9
:10236C001B687E4A43F480731360FEF7E3FE38610A
:10237C0008E0FEF7DFFE02463B69D31A642B01D955
:10238C00032303E1754B1B6803F48073002BF0D01F
:10239C007B68DB68012B06D16F4B1B6A6E4A43F0DE
:1023AC00010313622DE07B68DB68002B0CD16A4BB8
:1023BC001B6A694A23F001031362674B1B6A664A66
:1023CC0023F0040313621CE07B68DB68052B0CD143
:1023DC00614B1B6A604A43F0040313625E4B1B6A39
:1023EC005D4A43F0010313620BE05B4B1B6A5A4AD4
:1023FC0023F001031362584B1B6A574A23F0040362
:10240C0013627B68DB68002B15D0FEF793FE3861F6
:10241C000AE0FEF78FFE02463B69D31A41F288327E
:10242C00934201D90323B1E04B4B1B6A03F0020327
:10243C00002BEED014E0FEF77DFE38610AE0FEF7CB
:10244C0079FE02463B69D31A41F28832934201D994
:10245C0003239BE0404B1B6A03F00203002BEED1DD
:10246C00FB7D012B05D13C4BDB693B4A23F08053B0
:10247C00D3617B68DB69002B00F08780364B5B688F
:10248C0003F00C03082B61D07B68DB69022B46D16F
:10249C00334B00221A60FEF74DFE386108E0FEF760
:1024AC0049FE02463B69D31A022B01D903236DE086
:1024BC00294B1B6803F00073002BF0D17B681B6A5F
:1024CC00B3F5803F08D1244B5B6823F400327B6862
:1024DC009B68214913434B601F4B5B6823F47412B8
:1024EC007B68196A7B685B6A0B431B4913434B601F
:1024FC001B4B01221A60FEF71DFE386108E0FEF747
:10250C0019FE02463B69D31A022B01D903233DE085
:10251C00114B1B6803F00073002BF0D035E0104B0F
:10252C0000221A60FEF706FE386108E0FEF702FE94
:10253C0002463B69D31A022B01D9032326E0064B32
:10254C001B6803F00073002BF0D11EE07B68DB6985
:10255C00012B07D1012319E000100240007000404C
:10256C00600042420B4B5B68FB60FB6803F48032FB
:10257C007B681B6A9A4206D1FB6803F470127B6875
:10258C005B6A9A4201D0012300E0002318461837F9
:10259C00BD4680BD0010024080B584B000AF7860AD
:1025AC0039607B68002B01D10123D0E06A4B1B689A
:1025BC0003F007033A689A4210D9674B1B6823F063
:1025CC00070265493B6813430B60634B1B6803F0C0
:1025DC0007033A689A4201D00123B8E07B681B6874
:1025EC0003F00203002B20D07B681B6803F004036C
:1025FC00002B05D0594B5B68584A43F4E063536099
:10260C007B681B6803F00803002B05D0534B5B68F9
:10261C00524A43F460535360504B5B6823F0F00212
:10262C007B689B684D4913434B607B681B6803F0C8
:10263C000103002B40D07B685B68012B07D1474B13
:10264C001B6803F40033002B15D101237FE07B685A
:10265C005B68022B07D1414B1B6803F00073002B06
:10266C0009D1012373E03D4B1B6803F00203002BDF
:10267C0001D101236BE0394B5B6823F003027B68CB
:10268C005B68364913434B60FEF754FDF8600AE073
:10269C00FEF750FD0246FB68D31A41F28832934292
:1026AC0001D9032353E02D4B5B6803F00C027B68CC
:1026BC005B689B009A42EBD1274B1B6803F0070326
:1026CC003A689A4210D2244B1B6823F00702224925
:1026DC003B6813430B60204B1B6803F007033A68FD
:1026EC009A4201D0012332E07B681B6803F004039B
:1026FC00002B08D0194B5B6823F4E0627B68DB6825
:10270C00164913434B607B681B6803F00803002BCE
:10271C0009D0124B5B6823F460527B681B69DB00A9
:10272C000E4913434B6000F021F802460B4B5B68DB
:10273C001B0903F00F030A49CB5C22FA03F3094A85
:10274C001360094B1B681846FEF7B2FC00231846B1
:10275C001037BD4680BD00BF002002400010024073
:10276C002C3E0008000000200400002080B487B03C
:10277C0000AF0023FB600023BB6000237B610023C0
:10278C007B6000233B611E4B5B68FB60FB6803F0C6
:10279C000C03042B02D0082B03D027E0194B3B6110
:1027AC0027E0FB689B0C03F00F03174AD35C7B609C
:1027BC00FB6803F48033002B10D0114B5B685B0C6F
:1027CC0003F00103114AD35CBB607B680D4A03FB29
:1027DC0002F2BB68B2FBF3F37B6104E07B680C4A4A
:1027EC0002FB03F37B617B693B6102E0054B3B61C0
:1027FC0000BF3B6918461C37BD4680BC704700BF04
:10280C000010024000127A00443E0008543E0008BA
:10281C0000093D0080B400AF024B1B681846BD4652
:10282C0080BC70470000002080B500AFFFF7F2FFBE
:10283C000246054B5B681B0A03F007030349CB5C9C
:10284C0022FA03F3184680BD001002403C3E0008FB
:10285C0080B485B000AF78600A4B1B680A4AA2FBB3
:10286C0003235B0A7A6802FB03F3FB6000BFFB687F
:10287C005A1EFA60002BF9D100BF00BF1437BD46B9
:10288C0080BC704700000020D34D621080B582B030
:10289C0000AF78607B68002B01D1012376E07B6868
:1028AC005B6A002B08D17B685B68B3F5827F09D02B
:1028BC007B680022DA6105E07B6800221A617B6884
:1028CC0000225A617B6800229A627B6893F851302F
:1028DC00DBB2002B06D17B68002283F8502078688D
:1028EC00FEF7F6FA7B68022283F851207B681B689E
:1028FC001A687B681B6822F040021A607B685B6870
:10290C0003F482727B689B6803F404431A437B686C
:10291C00DB6803F400631A437B681B6903F0020352
:10292C001A437B685B6903F001031A437B689B695C
:10293C0003F400731A437B68DB6903F038031A4312
:10294C007B681B6A03F0800342EA03017B689B6A85
:10295C0003F400527B681B680A431A607B689B690E
:10296C001A0C7B681B6802F004025A607B681B68B7
:10297C00DA697B681B6822F40062DA617B680022EA
:10298C005A657B68012283F85120002318460837CA
:10299C00BD4680BD80B588B000AFF860B9603B60C3
:1029AC001346FB80FEF7C6FBF861FB887B83FB6854
:1029BC0093F85130DBB2012B01D002232AE1BB6822
:1029CC00002B02D0FB88002B01D1012322E1FB68F4
:1029DC0093F85030012B01D102231BE1FB6801223B
:1029EC0083F85020FB68032283F85120FB680022F7
:1029FC005A65FB68BA681A63FB68FA889A86FB68A2
:102A0C00FA88DA86FB6800229A63FB6800229A87B0
:102A1C00FB680022DA87FB6800225A64FB680022FC
:102A2C001A64FB689B68B3F5004F0FD1FB681B68F9
:102A3C001A68FB681B6822F040021A60FB681B686E
:102A4C001A68FB681B6842F480421A60FB681B68BA
:102A5C001B6803F04003402B07D0FB681B681A6807
:102A6C00FB681B6842F040021A60FB68DB68B3F538
:102A7C00006F52D1FB685B68002B02D07B8B012B63
:102A8C0045D1FB681B6B1A88FB681B68DA60FB6816
:102A9C001B6B9A1CFB681A63FB68DB8E9BB2013BB9
:102AAC009AB2FB68DA8632E0FB681B689B6803F01D
:102ABC000203022B12D1FB681B6B1A88FB681B6884
:102ACC00DA60FB681B6B9A1CFB681A63FB68DB8E75
:102ADC009BB2013B9AB2FB68DA8618E0FEF72AFB40
:102AEC000246FB69D31A3A689A4203D83B68B3F1A1
:102AFC00FF3F02D13B68002B09D1FB68012283F810
:102B0C005120FB68002283F85020032382E0FB68ED
:102B1C00DB8E9BB2002BC7D153E0FB685B68002BAC
:102B2C0002D07B8B012B47D1FB681A6BFB681B68AF
:102B3C000C3312781A70FB681B6B5A1CFB681A63F7
:102B4C00FB68DB8E9BB2013B9AB2FB68DA8633E002
:102B5C00FB681B689B6803F00203022B13D1FB6814
:102B6C001A6BFB681B680C3312781A70FB681B6BB2
:102B7C005A1CFB681A63FB68DB8E9BB2013B9AB252
:102B8C00FB68DA8618E0FEF7D5FA0246FB69D31A21
:102B9C003A689A4203D83B68B3F1FF3F02D13B68D5
:102BAC00002B09D1FB68012283F85120FB6800221D
:102BBC0083F8502003232DE0FB68DB8E9BB2002BA7
:102BCC00C6D1FA693968F86800F0D2FB0346002BCD
:102BDC0002D0FB6820225A65FB689B68002B0AD147
:102BEC0000237B61FB681B68DB687B61FB681B68EF
:102BFC009B687B617B69FB68012283F85120FB6831
:102C0C00002283F85020FB685B6D002B01D0012360
:102C1C0000E0002318462037BD4680BD80B588B043
:102C2C0002AFF860B9603B601346FB80FB6893F819
:102C3C005130DBB2012B01D0022304E1FB685B684D
:102C4C00B3F5827F12D1FB689B68002B0ED1FB6819
:102C5C00042283F85120FA883B6800931346BA6823
:102C6C00B968F86800F0F3F80346ECE0FEF762FA96
:102C7C007861BB68002B02D0FB88002B01D10123AB
:102C8C00E1E0FB6893F85030012B01D10223DAE02C
:102C9C00FB68012283F85020FB68042283F8512042
:102CAC00FB6800225A65FB68BA689A63FB68FA886D
:102CBC009A87FB68FA88DA87FB6800221A63FB683C
:102CCC0000229A86FB680022DA86FB6800221A64CE
:102CDC00FB6800225A64FB689B68B3F5004F0FD168
:102CEC00FB681B681A68FB681B6822F040021A60BC
:102CFC00FB681B681A68FB681B6822F480421A6028
:102D0C00FB681B681B6803F04003402B07D0FB6873
:102D1C001B681A68FB681B6842F040021A60FB686B
:102D2C00DB68002B70D135E0FB681B689B6803F0F7
:102D3C000103012B15D1FB681B6803F10C02FB6826
:102D4C009B6B1278D2B21A70FB689B6B5A1CFB6897
:102D5C009A63FB68DB8F9BB2013B9AB2FB68DA8704
:102D6C0018E0FEF7E7F902467B69D31A3A689A42F3
:102D7C0003D83B68B3F1FF3F02D13B68002B09D16C
:102D8C00FB68012283F85120FB68002283F8502055
:102D9C00032358E0FB68DB8F9BB2002BC4D138E0D7
:102DAC00FB681B689B6803F00103012B13D1FB68C4
:102DBC001B68DA68FB689B6B92B21A80FB689B6B92
:102DCC009A1CFB689A63FB68DB8F9BB2013B9AB23F
:102DDC00FB68DA8718E0FEF7ADF902467B69D31A77
:102DEC003A689A4203D83B68B3F1FF3F02D13B6883
:102DFC00002B09D1FB68012283F85120FB680022CB
:102E0C0083F8502003231EE0FB68DB8F9BB2002B62
:102E1C00C6D17A693968F86800F058FA0346002B75
:102E2C0002D0FB6820225A65FB68012283F85120EE
:102E3C00FB68002283F85020FB685B6D002B01D0EF
:102E4C00012300E0002318461837BD4680BD80B52D
:102E5C008AB000AFF860B9607A607B8001237B6236
:102E6C00FEF768F93862FB6893F85130FB77FB6822
:102E7C005B68BB617B88FB82FB7F012B0CD0BB6941
:102E8C00B3F5827F06D1FB689B68002B02D1FB7FD8
:102E9C00042B01D002237FE1BB68002B05D07B689B
:102EAC00002B02D07B88002B01D1012374E1FB683D
:102EBC0093F85030012B01D102236DE1FB68012204
:102ECC0083F85020FB6893F85130DBB2042B03D00D
:102EDC00FB68052283F85120FB6800225A65FB68C9
:102EEC007A689A63FB687A88DA87FB687A889A87AB
:102EFC00FB68BA681A63FB687A88DA86FB687A889A
:102F0C009A86FB6800221A64FB6800225A64FB68EC
:102F1C001B681B6803F04003402B07D0FB681B6841
:102F2C001A68FB681B6842F040021A60FB68DB6899
:102F3C00B3F5006F7ED1FB685B68002B02D0FB8A77
:102F4C00012B6CD1FB681B6B1A88FB681B68DA6061
:102F5C00FB681B6B9A1CFB681A63FB68DB8E9BB2CD
:102F6C00013B9AB2FB68DA8659E0FB681B689B68E8
:102F7C0003F00203022B1BD1FB68DB8E9BB2002BF0
:102F8C0016D07B6A012B13D1FB681B6B1A88FB686C
:102F9C001B68DA60FB681B6B9A1CFB681A63FB6886
:102FAC00DB8E9BB2013B9AB2FB68DA8600237B6214
:102FBC00FB681B689B6803F00103012B19D1FB68AC
:102FCC00DB8F9BB2002B14D0FB681B68DA68FB68A4
:102FDC009B6B92B21A80FB689B6B9A1CFB689A6382
:102FEC00FB68DB8F9BB2013B9AB2FB68DA8701234B
:102FFC007B62FEF79FF802463B6AD31A3A6B9A4201
:10300C000DD83B6BB3F1FF3F09D0FB68012283F86D
:10301C005120FB68002283F850200323BCE0FB689E
:10302C00DB8E9BB2002BA0D1FB68DB8F9BB2002BFD
:10303C009BD182E0FB685B68002B02D0FB8A012BE2
:10304C0071D1FB681A6BFB681B680C3312781A7011
:10305C00FB681B6B5A1CFB681A63FB68DB8E9BB20C
:10306C00013B9AB2FB68DA865DE0FB681B689B68E3
:10307C0003F00203022B1CD1FB68DB8E9BB2002BEE
:10308C0017D07B6A012B14D1FB681A6BFB681B6889
:10309C000C3312781A70FB681B6B5A1CFB681A6392
:1030AC00FB68DB8E9BB2013B9AB2FB68DA8600238D
:1030BC007B62FB681B689B6803F00103012B19D131
:1030CC00FB68DB8F9BB2002B14D0FB681B68DA68A3
:1030DC00FB689B6BD2B21A70FB689B6B5A1CFB682B
:1030EC009A63FB68DB8F9BB2013B9AB2FB68DA8771
:1030FC0001237B62FEF71EF802463B6AD31A3A6B39
:10310C009A4203D83B6BB3F1FF3F02D13B6B002BD0
:10311C0009D1FB68012283F85120FB68002283F857
:10312C005020032338E0FB68DB8E9BB2002B9CD134
:10313C00FB68DB8F9BB2002B97D13A6A396BF8682E
:10314C0000F016F90346002B08D0FB6820225A65C4
:10315C00FB68002283F8502001231DE0FB689B686C
:10316C00002B0AD100233B61FB681B68DB683B61C9
:10317C00FB681B689B683B613B69FB68012283F819
:10318C005120FB68002283F85020FB685B6D002BFC
:10319C0001D0012300E0002318462837BD4680BD2E
:1031AC0080B483B000AF78607B6893F85130DBB2A9
:1031BC0018460C37BD4680BC7047000080B588B0FF
:1031CC0000AFF860B9603B601346FB71FDF7B2FFCE
:1031DC000246BB6A9B1A3A681344FB61FDF7AAFFCF
:1031EC00B861394B1B685B011B0DFA6902FB03F3D9
:1031FC007B6154E03B68B3F1FF3F50D0FDF79AFF81
:10320C000246BB69D31AFA699A4202D9FB69002BB0
:10321C003DD1FB681B685A68FB681B6822F0E00212
:10322C005A60FB685B68B3F5827F11D1FB689B68C1
:10323C00B3F5004F04D0FB689B68B3F5806F07D1E2
:10324C00FB681B681A68FB681B6822F040021A6056
:10325C00FB689B6AB3F5005F0FD1FB681B681A68AB
:10326C00FB681B6822F400521A60FB681B681A6822
:10327C00FB681B6842F400521A60FB68012283F859
:10328C005120FB68002283F85020032317E07B6950
:10329C00002B01D10023FB617B69013B7B61FB6847
:1032AC001B689A68BB681340BA689A420CBF01232A
:1032BC000023DBB21A46FB799A429BD100231846B5
:1032CC002037BD4680BD00BF0000002080B586B011
:1032DC0002AFF860B9607A60FB685B68B3F5827F17
:1032EC0011D1FB689B68B3F5004F04D0FB689B6859
:1032FC00B3F5806F07D1FB681B681A68FB681B6805
:10330C0022F040021A60FB685B68B3F5827F17D12C
:10331C00FB689B68B3F5806F12D17B680093BB6828
:10332C0000220121F868FFF749FF0346002B1AD051
:10333C00FB685B6D43F02002FB685A65032313E0C6
:10334C007B680093BB6800228021F868FFF736FF8A
:10335C000346002B07D0FB685B6D43F02002FB6833
:10336C005A65032300E0002318461037BD4680BD84
:10337C0080B586B002AFF860B9607A607B68009364
:10338C00BB6801220221F868FFF718FF0346002BE7
:10339C0007D0FB685B6D43F02002FB685A65032382
:1033AC0013E07B680093BB6800228021F868FFF76C
:1033BC0005FF0346002B07D0FB685B6D43F0200232
:1033CC00FB685A65032300E0002318461037BD46FE
:1033DC0080BD0000014B1868704700BF0C00002036
:1033EC0070B500260C4D0D4C641BA410A64209D1DF
:1033FC0000F0D0FC00260A4D0A4C641BA410A64217
:10340C0005D170BD55F8043B98470136EEE755F8E9
:10341C00043B98470136F2E78C3E00088C3E0008CE
:10342C008C3E0008903E000803460244934200D1B3
:10343C00704703F8011BF9E70CB430B5174B0C1EA1
:10344C001D689DB008DA8B234FF0FF302B601DB048
:10345C00BDE8304002B070474FF40273ADF8143041
:10346C000CBF234604F1FF33049307934FF6FF730D
:10347C0002900690ADF81630284621AB209A02A98E
:10348C00019300F089F8431CBCBF8B232B60002CEC
:10349C00DDD00022029B1A70D9E700BF0C0000207F
:1034AC000EB46FF0004100B59CB01DAB02900690BD
:1034BC00079104910848094953F8042B05910068B9
:1034CC0002A9019300F068F80022029B1A701CB04C
:1034DC005DF804EB03B070470C0000200802FFFFFE
:1034EC002DE9F0478E6882469E420C4690461F4658
:1034FC0038D88A8912F4906F32D025680969013363
:10350C00A5EB010965694B4405EB450505EBD57544
:10351C006D109D4238BF1D46530531D5294600F02C
:10352C006FFB064650B90C234FF0FF30CAF8003041
:10353C00A38943F04003A381BDE8F0874A46216983
:10354C0000F0CEFAA38923F4906343F08003A381A7
:10355C0026614E4426603E466561A5EB0905A560D3
:10356C00BE4200D93E4632464146206800F0C6FABB
:10357C00A36800209B1BA360236833442360DBE714
:10358C002A4600F0B1FB06460028E1D150462169DD
:10359C0000F0CEFAC7E700002DE9F04F98468B8972
:1035AC0007461B060D4614469DB00ED50B6963B934
:1035BC00402100F025FB2860286120B90C233B60DA
:1035CC004FF0FF30D1E040236B610023099320239F
:1035DC008DF8293030234FF00109CDF80C80DFF83D
:1035EC00A4818DF82A3023469A4613F8012B0AB190
:1035FC00252AF9D1BAEB040B0BD05B46224629469F
:10360C003846FFF76DFF013000F0AA80099A5A4442
:10361C0009929AF80030002B00F0A28000234FF0A2
:10362C00FF32CDE905230AF1010A049307938DF8C3
:10363C0053301A935446052214F8011B514800F0DC
:10364C0041FA049AD8B9D00644BF20238DF85330E0
:10365C00110744BF2B238DF853309AF800302A2BD6
:10366C0015D0544600204FF00A0C079A214611F849
:10367C00013B303B092B4ED9B0B1079214E0A0EBC3
:10368C00080309FA03F31343A2460493D2E7039BFE
:10369C00191D1B680391002BBBBF5B4242F0020259
:1036AC0007930793B8BF049223782E2B0CD1637821
:1036BC002A2B35D1039B02341A1D1B680392002B55
:1036CC00B8BF4FF0FF330593DFF8BCA00322504680
:1036DC00217800F0F7F940B14023A0EB0A0003FA7F
:1036EC0000F0049B01340343049314F8011B0622DD
:1036FC0026488DF8281000F0E5F9002838D0244B26
:10370C001BBB039B073323F0070308330393099B6D
:10371C003344099367E70C4601200CFB0232A5E702
:10372C0000234FF00A0C194601340593204610F87B
:10373C00012B303A092A03D9002BC5D00591C3E7D8
:10374C00044601230CFB0121F0E703AB00932A464E
:10375C003846104B04A9AFF30080421C0646D6D164
:10376C00AB895B063FF52CAF09981DB0BDE8F08F17
:10377C0003AB00932A463846064B04A900F07CF8AC
:10378C00EBE700BF563E00085C3E0008603E0008B8
:10379C0000000000ED3400082DE9F047164699466C
:1037AC008A680B6907469342B8BF1346336091F899
:1037BC0043200C46DDF820800AB1013333602368C6
:1037CC00990642BF336802333360256815F006054D
:1037DC0006D104F1190AE36832689B1AAB4228DC63
:1037EC0094F84320131E226818BF012392062DD48F
:1037FC004946384604F14302C047013020D02368C3
:10380C00E56803F00603042B18BF002532684FF05F
:10381C000006A36808BFAD1A226908BF25EAE57542
:10382C009342C4BF9B1AED181A34B5421AD100202A
:10383C0008E00123524649463846C047013003D1BF
:10384C004FF0FF30BDE8F0870135C4E73020E118B8
:10385C0081F843005A1C94F845102244023382F834
:10386C004310C5E70123224649463846C04701307C
:10387C00E6D00136D9E700002DE9FF470F7E9146CF
:10388C00782F80460C469A460C9D01F1430207D8CE
:10389C00622F0AD8002F00F0D980582F00F0A48096
:1038AC0004F1420584F842703AE0A7F16303152B4A
:1038BC00F6D801A151F823F01D3900083139000860
:1038CC00AD380008AD380008AD380008AD38000838
:1038DC0031390008AD380008AD380008AD380008A3
:1038EC00AD3800083F3A000861390008213A000859
:1038FC00AD380008AD380008613A0008AD38000852
:10390C0061390008AD380008AD380008293A0008C4
:10391C002B681A1D1B682A6004F1420584F842309A
:10392C000123A4E020682968060601F104030AD5E6
:10393C000E682B60002E03DA2D23764284F8433078
:10394C000A235E4819E00E6810F0400F2B6018BF78
:10395C0036B2EFE72B682068191D2960010601D5E6
:10396C001E6802E04606FBD51E886F2F0CBF08238D
:10397C000A235248002184F843106568002DA8BF23
:10398C002168A560A4BF21F0040121600EB9002DAF
:10399C004DD01546B6FBF3F103FB1167C75D05F877
:1039AC00017D3746BB420E46F4D9082B0BD1236858
:1039BC00DE0708D5236961689942DEBF302305F81C
:1039CC00013C05F1FF35521B22614B462146404616
:1039DC00CDF800A003AAFFF7DFFE01304CD14FF069
:1039EC00FF3004B0BDE8F087344881F84570296891
:1039FC00236851F8046B29601D0614D5DF0744BFFA
:103A0C0043F0200323601EB9236823F020032360B6
:103A1C001023AFE7236843F0200323607823284862
:103A2C0084F84530E3E7590648BFB6B2E6E71546D9
:103A3C00BBE72B682668181D6169286035061B6872
:103A4C0001D5196002E07006FBD5198000231546DC
:103A5C002361BAE72B6800211A1D2A601D68626871
:103A6C00284600F02FF808B1401B606063682361A2
:103A7C00002384F84330A8E72A4649464046236988
:103A8C00D0470130ABD023689B0713D4E068039B6D
:103A9C009842B8BF1846A4E701233246494640462F
:103AAC00D04701309BD00135E36803995B1AAB42D8
:103ABC00F2DCEBE7002504F11906F5E7673E000898
:103ACC00783E0008034610B5C9B20244934218462A
:103ADC0001D1002003E0047801338C42F6D110BDF3
:103AEC000A44914200F1FF3300D1704710B511F830
:103AFC00014B914203F8014FF9D110BD884210B52A
:103B0C0001EB020402D98442234607D8431EA1428A
:103B1C0008D011F8012B03F8012FF8E701460244F5
:103B2C008A4200D110BD13F8014D02F8014DF7E7A0
:103B3C0038B50546002940D051F8043C0C1F002B29
:103B4C00B8BFE41800F010F91C4A136833B963606D
:103B5C0014602846BDE8384000F00CB9A34208D9DF
:103B6C00206821188B4201BF19685B680918216015
:103B7C00EDE71A465B680BB1A342FAD911685018ED
:103B8C00A0420BD120680144501883421160E0D14F
:103B9C0018685B68014411605360DAE702D90C23A2
:103BAC002B60D6E7206821188B4201BF19685B682F
:103BBC000918216063605460CBE738BD8401002094
:103BCC0070B50E4E0C463168054611B900F0BCF8C4
:103BDC0030602146284600F0B7F8431C0AD0C41CBC
:103BEC0024F00304A04207D0211A284600F0ACF8B8
:103BFC00013001D14FF0FF34204670BD8801002008
:103C0C002DE9F041CD1C25F0030508350C2D38BFEE
:103C1C000C25002D074601DBA94205D90C230026F3
:103C2C003B603046BDE8F0812E4E00F09DF83368C5
:103C3C001C4634BB29463846FFF7C2FF431C0446DA
:103C4C004DD134682646002E40D123683146384683
:103C5C0004EB030800F078F880453AD1216803356D
:103C6C006D1A25F0030508350C2D38BF0C25384688
:103C7C002946FFF7A5FF01302BD023682B44236086
:103C8C000EE02268521B1ED40B2A16D96119A342CE
:103C9C00256018BF5960636808BF316062514B6082
:103CAC00384604F10B0600F065F826F00706231DD4
:103CBC00F21AB6D09B1BA350B3E76268A3420CBFA9
:103CCC0032605A60ECE723466468B2E734467668A3
:103CDC00B9E70C2338463B6000F04CF8A1E72560AF
:103CEC00DEE700BF840100202DE9F0418046144638
:103CFC000E4621B91146BDE8F041FFF781BF2AB944
:103D0C00FFF716FF25462846BDE8F08100F038F88D
:103D1C008442074602D8B4EB500F12D821464046D5
:103D2C00FFF76EFF05460028EDD0BC422246314617
:103D3C0028BF3A46FFF7D4FE31464046FFF7F8FE5F
:103D4C00E1E73546DFE7000038B50023054D0446B2
:103D5C0008462B60FDF734F9431C02D12B6803B1E4
:103D6C00236038BD8C010020014800F011B800BF61
:103D7C0090010020014800F00CB800BF9001002019
:103D8C0051F8043C181F002BBCBF0B58C0187047CF
:103D9C0070477047F8B500BFF8BC08BC9E4670472A
:0C3DAC00F8B500BFF8BC08BC9E4670478C
:103DB8003D3D3D3D3D2054585F4C4F5241203D3DD7
:103DC8003D3D3D004C6F526120494E4954204641CB
:103DD800494C2120202000004C6F526120494E4957
:103DE80054204F4B212000002A256C752300000029
:103DF80054583A20252D313273000000436E743A2E
:103E0800252D356C752020204F4B20200000000008
:103E1800436E743A252D356C7520204641494C2057
:103E28000000000000000000000000000102030480
:103E38000607080900000000010203040203040544
:103E4800060708090A0B0C0D0E0F10100102232D8E
:103E5800302B2000686C4C0065666745464700308B
:103E680031323334353637383941424344454600D8
:103E780030313233343536373839616263646566D8
:043E88000000000036
:043E8C0031010008F8
:043E90000D01000818
:103E940000127A0010000000010000001000002051
:103EA400000000000000000000000000000000000E
:103EB40000000000000000000000000000000000FE
:103EC40000000000000000000000000000000000EE
:103ED40000000000000000000000000000000000DE
:103EE40000000000000000000000000000000000CE
:103EF40000000000000000000000000000000000BE
:04000005080010459A
:00000001FF
