:020000040800F2
:1000000000000220459200088D8F0008958F00089F
:100010009D8F0008A58F0008AD8F0008000000002C
:10002000000000000000000000000000B58F000884
:10003000C38F000800000000D18F0008DF8F000888
:1000400095920008959200089592000895920008F4
:1000500095920008EB8F0008959200089592000891
:10006000F98F000895920008959200089592000873
:1000700095920008959200089592000895920008C4
:100080009592000895920008099000089592000842
:100090009592000895920008959200081D9000081E
:1000A000959200083D9000089592000895920008EE
:1000B0009592000895920008959200089592000884
:1000C0009592000895920008959200089592000874
:1000D00095920008519000089592000895920008AA
:1000E0006590000895920008959200089592000886
:1000F0009592000895920008959200089592000844
:100100009592000895920008959200089592000833
:100110009592000895920008959200089592000823
:100120009592000895920008959200089592000813
:100130009592000895920008959200089592000803
:1001400095920008959200089592000895920008F3
:1001500095920008959200089592000895920008E3
:1001600095920008959200089592000895920008D3
:1001700095920008959200089592000800000000F2
:08018000959200089592000819
:1001900010B5054C237833B9044B13B10448AFF3C1
:1001A00000800123237010BD980200200000000091
:1001B0006475010808B5034B1BB103490348AFF34D
:1001C000008008BD000000009C020020647501084A
:1001D00001F0FF01102A2BDB10F0070F08D010F8F8
:1001E000013B013A8B422DD010F0070F42B3F6D1FC
:1001F000F0B441EA012141EA014122F007047FF015
:1002000000070023F0E80256083C85EA010586EA6B
:10021000010685FA47F5A3FA87F586FA47F6A5FAA7
:1002200087F68EB9EED1F0BC01F0FF0102F00702B3
:1002300032B110F8013B013A83EA010313B1F8D15E
:100240000020704701387047002D06BF354603383F
:10025000073815F0010F07D1013015F4807F02BF78
:10026000013015F4C03F0130F0BC0138704700BFC9
:10027000034613F8012B002AFBD1181A01387047E6
:1002800081F0004102E000BF83F0004330B54FEA47
:1002900041044FEA430594EA050F08BF90EA020FB4
:1002A0001FBF54EA000C55EA020C7FEA645C7FEA47
:1002B000655C00F0E2804FEA5454D4EB5555B8BF6A
:1002C0006D420CDD2C4480EA020281EA030382EADB
:1002D000000083EA010180EA020281EA0303362D6D
:1002E00088BF30BD11F0004F4FEA01314FF4801C40
:1002F0004CEA113102D0404261EB410113F0004F52
:100300004FEA03334CEA133302D0524263EB430308
:1003100094EA050F00F0A780A4F10104D5F1200EA6
:100320000DDB02FA0EFC22FA05F2801841F1000101
:1003300003FA0EF2801843FA05F359410EE0A5F1D5
:1003400020050EF1200E012A03FA0EFC28BF4CF006
:10035000020C43FA05F3C01851EBE37101F00045BC
:1003600007D54FF0000EDCF1000C7EEB00006EEBC9
:100370000101B1F5801F1BD3B1F5001F0CD3490853
:100380005FEA30004FEA3C0C04F101044FEA4452AA
:1003900012F5800F80F09A80BCF1004F08BF5FEA31
:1003A000500C50F1000041EB045141EA050130BD11
:1003B0005FEA4C0C404141EB0101013C28BFB1F523
:1003C000801FE9D291F0000F04BF01460020B1FA6E
:1003D00081F308BF2033A3F10B03B3F120020CDA41
:1003E0000C3208DD02F1140CC2F10C0201FA0CF01F
:1003F00021FA02F10CE002F11402D8BFC2F1200C84
:1004000001FA02F120FA0CFCDCBF41EA0C01904039
:10041000E41AA2BF01EB0451294330BD6FEA040482
:100420001F3C1CDA0C340EDC04F11404C4F120026D
:1004300020FA04F001FA02F340EA030021FA04F37F
:1004400045EA030130BDC4F10C04C4F1200220FAD6
:1004500002F001FA04F340EA0300294630BD21FA14
:1004600004F0294630BD94F0000F83F4801306BFDA
:1004700081F480110134013D4EE77FEA645C18BFCE
:100480007FEA655C29D094EA050F08BF90EA020F65
:1004900005D054EA000C04BF1946104630BD91EA5D
:1004A000030F1EBF0021002030BD5FEA545C05D160
:1004B0004000494128BF41F0004130BD14F580049F
:1004C0003CBF01F5801130BD01F0004545F0FE4113
:1004D00041F470014FF0000030BD7FEA645C1ABF48
:1004E000194610467FEA655C1CBF0B46024650EA7F
:1004F000013406BF52EA033591EA030F41F40021AB
:1005000030BD00BF90F0000F04BF0021704730B530
:100510004FF4806404F132044FF000054FF0000105
:1005200050E700BF90F0000F04BF0021704730B5C6
:100530004FF4806404F1320410F0004548BF40429B
:100540004FF000013EE700BF42004FEAE2014FEAF0
:1005500031014FEA02701FBF12F07F4393F07F4FCB
:1005600081F06051704732F07F4208BF704793F0CE
:100570007F4F04BF41F40021704730B54FF46074E1
:1005800001F0004521F000411CE700BF50EA0102E4
:1005900008BF704730B54FF000050AE050EA01028D
:1005A00008BF704730B511F0004502D5404261EBFD
:1005B00041014FF4806404F132045FEA915C3FF43E
:1005C000D8AE4FF003025FEADC0C18BF03325FEADB
:1005D000DC0C18BF033202EBDC02C2F1200300FA8C
:1005E00003FC20FA02F001FA03FE40EA0E0021FAB1
:1005F00002F11444BDE600BF70B54FF0FF0C4CF49F
:10060000E06C1CEA11541DBF1CEA135594EA0C0F50
:1006100095EA0C0F00F0DEF82C4481EA030621EA8B
:100620004C5123EA4C5350EA013518BF52EA0335C6
:1006300041F4801143F4801338D0A0FB02CE4FF078
:100640000005E1FB02E506F00042E0FB03E54FF0A8
:100650000006E1FB03569CF0000F18BF4EF0010EA0
:10066000A4F1FF04B6F5007F64F5407404D25FEA9C
:100670004E0E6D4146EB060642EAC62141EA55514F
:100680004FEAC52040EA5E504FEACE2EB4F1FD0C91
:1006900088BFBCF5E06F1ED8BEF1004F08BF5FEA0F
:1006A000500E50F1000041EB045170BD06F00046C1
:1006B00046EA010140EA020081EA0301B4EB5C046E
:1006C000C2BFD4EB0C0541EA045170BD41F4801166
:1006D0004FF0000E013C00F3AB8014F1360FDEBF8B
:1006E000002001F0004170BDC4F10004203C35DA67
:1006F0000C341BDC04F11404C4F1200500FA05F3EA
:1007000020FA04F001FA05F240EA020001F000428A
:1007100021F0004110EBD37021FA04F642EB060100
:100720005EEA430E08BF20EAD37070BDC4F10C042A
:10073000C4F1200500FA04F320FA05F001FA04F2EE
:1007400040EA020001F0004110EBD37041F10001DA
:100750005EEA430E08BF20EAD37070BDC4F12005E5
:1007600000FA05F24EEA020E20FA04F301FA05F24D
:1007700043EA020321FA04F001F0004121FA04F2F5
:1007800020EA020000EBD3705EEA430E08BF20EAC5
:10079000D37070BD94F0000F0FD101F000464000FF
:1007A00041EB010111F4801F08BF013CF7D041EA81
:1007B000060195F0000F18BF704703F00046520085
:1007C00043EB030313F4801F08BF013DF7D043EA56
:1007D0000603704794EA0C0F0CEA135518BF95EA0C
:1007E0000C0F0CD050EA410618BF52EA4306D1D193
:1007F00081EA030101F000414FF0000070BD50EAB2
:10080000410606BF1046194652EA430619D094EA3B
:100810000C0F02D150EA013613D195EA0C0F05D125
:1008200052EA03361CBF104619460AD181EA030179
:1008300001F0004141F0FE4141F470014FF0000031
:1008400070BD41F0FE4141F4780170BD70B54FF0CC
:10085000FF0C4CF4E06C1CEA11541DBF1CEA13554C
:1008600094EA0C0F95EA0C0F00F0A7F8A4EB05042E
:1008700081EA030E52EA03354FEA013100F0888025
:100880004FEA03334FF0805545EA131343EA1263EE
:100890004FEA022245EA111545EA10654FEA0026A3
:1008A0000EF000419D4208BF964244F1FD0404F55C
:1008B000407402D25B084FEA3202B61A65EB0305B8
:1008C0005B084FEA32024FF480104FF4002CB6EB75
:1008D000020E75EB030E22BFB61A754640EA0C00F5
:1008E0005B084FEA3202B6EB020E75EB030E22BF35
:1008F000B61A754640EA5C005B084FEA3202B6EB76
:10090000020E75EB030E22BFB61A754640EA9C0034
:100910005B084FEA3202B6EB020E75EB030E22BF04
:10092000B61A754640EADC0055EA060E18D04FEAC2
:10093000051545EA16754FEA06164FEAC30343EA62
:1009400052734FEAC2025FEA1C1CC0D111F4801F2F
:100950000BD141EA00014FF000004FF0004CB6E728
:1009600011F4801F04BF01430020B4F1FD0C88BFC7
:10097000BCF5E06F3FF6AFAEB5EB030C04BFB6EBD2
:10098000020C5FEA500C50F1000041EB045170BDC5
:100990000EF0004E4EEA113114EB5C04C2BFD4EBF2
:1009A0000C0541EA045170BD41F480114FF0000E76
:1009B000013C90E645EA060E8DE60CEA135594EAF2
:1009C0000C0F08BF95EA0C0F3FF43BAF94EA0C0FF5
:1009D0000AD150EA01347FF434AF95EA0C0F7FF46A
:1009E00025AF104619462CE795EA0C0F06D152EABE
:1009F00003353FF4FDAE1046194622E750EA4106A2
:100A000018BF52EA43067FF4C5AE50EA41047FF4B2
:100A10000DAF52EA43057FF4EBAE12E74FF0FF3C17
:100A200006E000BF4FF0010C02E000BF4FF0010CE8
:100A30004DF804CD4FEA410C7FEA6C5C4FEA430C61
:100A400018BF7FEA6C5C1BD001B050EA410C0CBFB0
:100A500052EA430C91EA030F02BF90EA020F002012
:100A6000704710F1000F91EA030F58BF994208BF79
:100A700090422CBFD8176FEAE37040F00100704736
:100A80004FEA410C7FEA6C5C02D150EA013C07D18D
:100A90004FEA430C7FEA6C5CD6D152EA033CD3D0D8
:100AA0005DF8040B704700BF8446104662468C46D2
:100AB0001946634600E000BF01B5FFF7B7FF002805
:100AC00048BF10F1000F01BD4DF808EDFFF7F4FF2E
:100AD0000CBF012000205DF808FB00BF4DF808EDB9
:100AE000FFF7EAFF34BF012000205DF808FB00BFDC
:100AF0004DF808EDFFF7E0FF94BF012000205DF8FE
:100B000008FB00BF4DF808EDFFF7CEFF94BF0120B2
:100B100000205DF808FB00BF4DF808EDFFF7C4FFAB
:100B200034BF012000205DF808FB00BF4FEA410CF4
:100B30007FEA6C5C02D150EA013C0AD14FEA430CD7
:100B40007FEA6C5C02D152EA033C02D14FF0000014
:100B500070474FF0010070474FEA410212F5001252
:100B600015D211D56FF47873B3EB625212D94FEAF4
:100B7000C12343F0004343EA505311F0004F23FADE
:100B800002F018BF404270474FF00000704750EA33
:100B9000013005D111F0004008BF6FF000407047F0
:100BA0004FF00000704700BF4A0011D212F500124A
:100BB00011D20DD56FF47873B3EB62520ED44FEAB5
:100BC000C12343F0004343EA505323FA02F0704735
:100BD0004FF00000704750EA013002D14FF0FF3073
:100BE00070474FF0000070474FEA4102B2F1E04316
:100BF00024BFB3F5001CDCF1FE5C0DD901F0004C04
:100C00004FEAC0024CEA5070B2F1004F40EB830053
:100C100008BF20F00100704711F0804F21D113F17F
:100C20003872BCBF01F00040704741F480114FEAB8
:100C30005252C2F11802C2F1200C10FA0CF320FA41
:100C400002F018BF40F001004FEAC1234FEAD3235E
:100C500003FA0CFC40EA0C0023FA02F34FEA4303C8
:100C6000CCE77FEA625307D150EA01331EBF4FF051
:100C7000FE4040F44000704701F0004040F0FE406C
:100C800040F40000704700BF7BB972B90029BEBFB5
:100C900000204FF0004106E008BF00281CBF6FF0A5
:100CA00000414FF0FF3000F009BAADF1080C6DE9DA
:100CB00004CE002909DB002B1ADB00F083F8DDF8F5
:100CC00004E0DDE9022304B07047404261EB4101DA
:100CD000002B1BDB00F076F8DDF804E0DDE90223F1
:100CE00004B0404261EB4101524263EB4303704761
:100CF000524263EB430300F065F8DDF804E0DDE900
:100D0000022304B0404261EB41017047524263EB61
:100D1000430300F057F8DDF804E0DDE9022304B0F6
:100D2000524263EB4303704753B94AB9002908BFE5
:100D300000281CBF4FF0FF314FF0FF3000F0BEB96C
:100D4000ADF1080C6DE904CE00F03CF8DDF804E0EC
:100D5000DDE9022304B0704738B5002200230446C1
:100D60000D46FFF7BBFE28B920462946BDE83840AE
:100D700000F00AB8204605F1004100F005F84042B5
:100D800061EB410138BD00BFD0B50C4B00220646D7
:100D90000F46FFF731FCFFF707FF0446FFF7B2FBF2
:100DA000074B0022FFF728FC02460B463046394627
:100DB000FFF76AFAFFF7F8FE2146D0BD0000F03DCC
:100DC0000000F0412DE9F047089D0F4604468C468F
:100DD000002B48D18A42164661D9B2FA82F34BB150
:100DE000C3F1200201FA03FC20FA02F29E4042EA1B
:100DF0000C0C9C404FEA164EB7B2BCFBFEF1220C25
:100E00000EFB11CC42EA0C4201FB07F0904209D9DB
:100E1000B21801F1FF3C80F0EE80904240F2EB808E
:100E200002393244121AA4B2B2FBFEF00EFB1022B9
:100E300044EA024400FB07F7A74209D9341900F13C
:100E4000FF3280F0DA80A74240F2D7803444023883
:100E500040EA0140E41B00211DB1DC400023C5E94C
:100E60000043BDE8F0878B4206D90DB1C5E900010A
:100E700000210846BDE8F087B3FA83F1002948D184
:100E8000BB4202D3824200F20781841A67EB03025D
:100E900001209446002DE4D0C5E9004CE1E7002A8A
:100EA00000F09280B2FA82F3002B40F0A8808A1AF8
:100EB0004FEA164E1FFA86FC0121200CB2FBFEF70A
:100EC0000EFB172240EA02420CFB07F0904207D9C2
:100ED000B21807F1FF3802D2904200F2E280474692
:100EE000121AA4B2B2FBFEF00EFB102244EA024436
:100EF0000CFB00FCA44507D9341900F1FF3202D2E3
:100F0000A44500F2CB801046A4EB0C0440EA074055
:100F1000A2E7C1F120068B4022FA06FC4CEA030C42
:100F200007FA01F420FA06F3F7404FEA1C4923437D
:100F300000FA01F81FFA8CFEB7FBF9F01C0C09FB54
:100F4000107744EA074400FB0EF7A74202FA01F2C9
:100F50000AD91CEB040400F1FF3A80F09B80A74201
:100F600040F2988002386444E41B9FB2B4FBF9F36A
:100F700009FB134447EA044403FB0EFEA64509D9C6
:100F80001CEB040403F1FF3780F08280A6457FD973
:100F9000023B644443EA0040A4EB0E04A0FB02E7DA
:100FA000BC427346B94663D360D05DB1B8EB03026F
:100FB00064EB090404FA06F622FA01F31E43CC405E
:100FC000C5E9006400214CE76208480842EAC171A3
:100FD0000B0C43EA00438AB242EA0342B3FBF6F148
:100FE000E407B4463746B6461F23B0FBF6F0D21BE3
:100FF00041EA004161E7614614E7104628E7C3F182
:10100000200120FA01F29E4027FA01F19F403A4365
:101010004FEA164E1FFA86FCB1FBFEF70EFB1710C7
:10102000110C41EA004107FB0CF8884504FA03F46F
:101030003AD9711807F1FF3001D288451FD8A1EBCA
:101040000801B1FBFEF808FB0CF70EFB181192B279
:1010500042EA0142BA422FD2B21808F1FF31C6D299
:10106000BA42C4D2A8F102013244C0E7F0459CD292
:10107000BEEB020367EB0C070138B94695E7A6EB18
:1010800008084144B81EB1FBFEF808FB0CF7DCE78A
:101090003B467FE7504667E70846FBE634440238A4
:1010A00032E7023F32441BE7A1EB08013846B1FBAF
:1010B000FEF808FB0CF7C8E7414698E7704700BF09
:1010C00080B500AF05F0A6F806F03CFB00F026FC6A
:1010D000044804F0E3FD572005F0FDFA05F05EFC3E
:1010E00000BF80BDBC2F002080B52DED028B9EB0CF
:1010F00000AF07F10803184605F00AFB3B46184607
:1011000005F014FCB7F9083007EE903AF8EEE77AEC
:10111000C7ED1D7AB7F90A3007EE903AF8EEE77A94
:10112000C7ED1C7AB7F90C3007EE903AF8EEE77A83
:10113000C7ED1B7AB7F9003007EE903AF8EEE77A80
:10114000C7ED1A7AB7F9023007EE903AF8EEE77A6F
:10115000C7ED197AB7F9043007EE903AF8EEE77A5E
:10116000C7ED187ACA4BFB65CA4BBB65CA4B7B659A
:10117000CA4B3B65CA4BFB64CA4BBB64CA4B7B641E
:10118000CA4B3B64CA4BFB63CA4BBB63CA4B7B6312
:10119000CA4B3B6397ED1A7AD7ED177A77EE677AE9
:1011A000C7ED0B7A97ED197AD7ED167A77EE677A55
:1011B000C7ED0A7A97ED187AD7ED157A77EE677A48
:1011C000C7ED097A97ED147AD7ED0B7A27EE277AD7
:1011D000D7ED136AD7ED0A7A66EEA77A37EE277A4B
:1011E000D7ED126AD7ED097A66EEA77A77EE277AFD
:1011F000C7ED087A97ED117AD7ED0B7A27EE277AAB
:10120000D7ED106AD7ED0A7A66EEA77A37EE277A1D
:10121000D7ED0F6AD7ED097A66EEA77A77EE277ACF
:10122000C7ED077A97ED0E7AD7ED0B7A27EE277A7E
:10123000D7ED0D6AD7ED0A7A66EEA77A37EE277AF0
:10124000D7ED0C6AD7ED097A66EEA77A77EE277AA2
:10125000C7ED067AD7ED1D7AB1EE678AD7ED1C7A15
:1012600027EEA77AD7ED1B7A67EEA77A77EE277A73
:10127000B0EE670A12F012FCF0EE407AF0EE670A68
:10128000B0EE480A12F008FC10EE103A1846FFF7CC
:101290005BF902460B468A49C1E90023D7ED1B0AD8
:1012A00097ED1C0A12F0F8FB10EE103A1846FFF703
:1012B0004BF902460B468349C1E90023804BD3E931
:1012C000002310461946FFF78FFC034600EE103A44
:1012D00012F006FCB0EE407AD7ED087A27EE278AA6
:1012E000784BD3E9002310461946FFF77DFC0346EF
:1012F00000EE103A12F02CFCB0EE407AD7ED077AEF
:1013000067EE278A6E4BD3E9002310461946FFF794
:101310006BFC034600EE103A12F01AFCF0EE407A35
:1013200068EEA77A38EE278A664BD3E90023104689
:101330001946FFF759FC034600EE103A12F0D0FBB5
:10134000B0EE407AD7ED067A67EE278A5C4BD3E998
:10135000002310461946FFF747FC034600EE103AFB
:1013600012F0F6FBF0EE407A68EEA77A78EE677A34
:10137000C7ED057A534BD3E9002310461946FFF712
:1013800033FC034600EE103A12F0AAFBB0EE407AAE
:10139000D7ED077A27EE278A4A4BD3E90023104678
:1013A0001946FFF721FC034600EE103A12F0D0FB7D
:1013B000B0EE407AD7ED067A67EE277A78EE277A94
:1013C000C7ED047AD7ED050A97ED040A12F064FB25
:1013D000F0EE407A9FED3C7A67EE877A17EE900A3E
:1013E000FFF7B2F802460B463849C1E90023374BF4
:1013F000D3E900014FF00002354BFEF747FF0246EC
:101400000B463249C1E90023304BD3E900014FF0CC
:1014100000024FF00003FFF761FB0346002B0DD0E5
:101420002A4BD3E900014FF000022A4BFEF72EFFB2
:1014300002460B462549C1E9002317E0234BD3E9B7
:1014400000014FF00002234BFFF75CFB0346002B2B
:101450000CD01E4BD3E900014FF000021D4BFEF7EC
:1014600013FF02460B461949C1E90023174BD3E984
:10147000002310461946FFF7B7FB034600EE103A6B
:1014800001F08AFB00BF7837BD46BDEC028B80BD02
:10149000060159C20AD7233E39B42BC2EE7C7F3FE6
:1014A0004260E5BB6F1203BB6F12833A9CC4803F5E
:1014B00068916DBDF4FD54BC77BE1F3DDBF97E3FE6
:1014C000D8020020D0020020E12E6542E002002078
:1014D000000059400080764080B500AF024804F01B
:1014E0007FFA00BF80BD00BFB402002000000000F2
:1014F000B0B5A6B002AF002006F0FAF9BC4B1A78DE
:10150000BC4B1A70BC4B1B7A002B00F0B381BA4B5A
:101510001B681846FFF718F802460B463846CDE917
:101520000023B64A20210FF043FA0221012006F0E1
:1015300061FA3B460122B249184606F0EFFAAE4B7B
:101540005B681846FFF700F802460B463846CDE9BF
:101550000023AC4A20210FF02BFA0C21012006F0C9
:1015600049FA3B460122A649184606F0D7FA01235C
:101570000093192380221921002006F0F4FA1D217E
:10158000012006F037FA01229D499F4806F0C6FA6D
:101590000023C7F88C302923C7F888300123C7F807
:1015A00084300123C7F880304FE1D7F88030022B18
:1015B00000F04581954AD7F880301B0113440C3365
:1015C0001B78002B00F03C8107F0CCFE02468F49CF
:1015D000D7F880301B010B4408331B68D31A8C4AA0
:1015E000934200F22D81844B1B681846FEF7ACFF36
:1015F00002460B46C7E91E237F4B5B681846FEF781
:10160000A3FF02460B46C7E91C23804AD7F8803067
:101610001B0113441B681846FEF796FF02460B4653
:10162000C7E91A23794AD7F880301B0113440433E1
:101630001B681846FEF788FF02460B46C7E91823C9
:10164000D7E91E23D7E91A01FEF71EFE02460B4614
:101650001046194662A3D3E90023FEF7CDFF0246E8
:101660000B46C7E91623D7E91C23D7E91801FEF773
:101670000BFE02460B461046194659A3D3E9002338
:10168000FEF7BAFF02460B46C7E91423D7E91A232F
:10169000D7E91E01FEF7FAFD02460B461046194631
:1016A0004FF000025B4BFEF7A7FF02460B461046C9
:1016B00019464BA3D3E90023FEF79EFF02460B46D3
:1016C000C7E9122397ED120B12F05EF953EC102BC1
:1016D000D7E91401FEF790FF02460B46C7E9102335
:1016E000D7E91623C7E90E23D7E91023D7E910015C
:1016F000FEF782FF02460B4614461D46D7E90E232D
:10170000D7E90E01FEF778FF02460B462046294630
:10171000FEF7BCFD02460B4643EC172BB0EE470A22
:10172000F0EE670A12F0FCF851EC100B2EA3D3E98F
:101730000023FEF761FF02460B46C7E90C234FF07A
:101740000002354BD7E90C01FFF7C8F90346002B1F
:101750000ED0D7E90C01FFF7FFF9034607F120008F
:101760000093D7F880302D4A10210FF021F912E0B4
:101770004FF00002284BD7E90C01FFF767F802464B
:101780000B4607F12000CDE90023D7F88030244A2A
:1017900010210FF00DF9D7F884309BB2D7F88820CC
:1017A00092B21146184606F025F907F120030122EE
:1017B0001349184606F0B2F9D7F88C300133C7F850
:1017C0008C30D7F88C30002B03F00103B8BF5B429C
:1017D000012B27D14223C7F884302BE0AFF30080E0
:1017E000000000A046DF913F00000000AE4D5841D0
:1017F0002803002029030020F00400208075010840
:10180000AC0000208C750108987501087C0600204A
:10181000DF9304000000E03F00408F40A8750108FE
:10182000B47501080123C7F88430D7F888300C3329
:10183000C7F88830D7F88C30032B0CDC00E000BFF1
:10184000D7F880300133C7F88030D7F88030FF2BCD
:101850007FF7ABAE00E000BFD7F88C30002B12D181
:101860002921012006F0C6F801220B490B4806F099
:1018700055F908E01421012006F0BCF801220649C0
:10188000074806F04BF906F001F8642007F076FDF2
:1018900000BF9037BD46B0BDAC000020C075010848
:1018A000D075010880B500AF04F034FB03461A463A
:1018B000134B1A7004F03AFB03461A46114B1A7088
:1018C00004F040FB03461A460F4B1A7004F0D3FA9B
:1018D00003461A460D4B1A7004F0D9FA03461A460D
:1018E0000B4B1A7004F0DFFA03461A46094B1A70C4
:1018F00004F0E8FA03461A46074B1A8000BF80BD81
:10190000C8020020C9020020CA020020CB02002029
:10191000CC020020CD020020CE02002080B582B093
:1019200000AF3B4600221A60C3F8032003F068FBB7
:1019300003237B710323FB700523BB7005237B709E
:1019400005233B700023BB7103233B713B4693E8A7
:10195000030004F027F900BF0837BD4680BD000032
:1019600080B586B000AF07F10803184604F0D0FE3A
:101970003B46184604F0DAFFB7F9003007EE903A1C
:10198000F8EEE77AC7ED057AB7F9023007EE903A3C
:10199000F8EEE77AC7ED047A304BB3F9003007EE82
:1019A000903AF8EEE77A97ED057AB4EEE77AF1EE41
:1019B00010FA08D5D7ED057AFDEEE77A17EE903AE2
:1019C0001AB2264B1A80254BB3F9023007EE903A33
:1019D000F8EEE77A97ED057AB4EEE77AF1EE10FAD1
:1019E00008DDD7ED057AFDEEE77A17EE903A1AB2E8
:1019F0001A4B5A80194BB3F9043007EE903AF8EEBF
:101A0000E77A97ED047AB4EEE77AF1EE10FA08D5AA
:101A1000D7ED047AFDEEE77A17EE903A1AB20F4B43
:101A20009A800E4BB3F9063007EE903AF8EEE77A5B
:101A300097ED047AB4EEE77AF1EE10FA00DC08E0F4
:101A4000D7ED047AFDEEE77A17EE903A1AB2034B1F
:101A5000DA8000BF1837BD4680BD00BF00000020FF
:101A600080B485B000AF434BB3F902301A46414B06
:101A7000B3F90030134407EE903AB8EEE77AF0EE8F
:101A8000006AC7EE267A3B4BC3ED027A394BB3F9B5
:101A900006301A46374BB3F90430134407EE903A38
:101AA000B8EEE77AF0EE006AC7EE267A314BC3ED66
:101AB000037A304BB3F9023007EE903AB8EEE77A8A
:101AC0002C4BB3F9003007EE903AF8EEE77A37EE98
:101AD000677AF0EE006AC7EE267AC7ED037A254BE7
:101AE000B3F9063007EE903AB8EEE77A214BB3F936
:101AF000043007EE903AF8EEE77A37EE677AF0EEC8
:101B0000006AC7EE267AC7ED027A97ED037AD7ED21
:101B1000027A37EE277AF0EE006AC7EE267AC7ED32
:101B2000017AD7ED037AF5EEC07AF1EE10FA00DC17
:101B300019E0D7ED027AF5EEC07AF1EE10FA00DC8A
:101B400011E0D7ED016A97ED037AC6EE877A094B6B
:101B5000C3ED057AD7ED016A97ED027AC6EE877A72
:101B6000044BC3ED067A00BF1437BD465DF8047B15
:101B7000704700BF0000002080B584B000AF03466E
:101B8000FB8007F0EFFBB8600023FB73FB88BB8191
:101B900005E0BB895B08BB81FB7B0133FB73BB8921
:101BA000012BF6D8FB7B0F2B0CD8FB7B2B4A52F872
:101BB0002330BA68D31AF92B46D9FB7B2749BA6878
:101BC00041F82320FB88184603F09EF90346002BBA
:101BD0003CD1FB88184602F0EDFA0346002B37D1C2
:101BE000FB88B3F5004F29D0B3F5004F32DCB3F5D5
:101BF000006F1AD0B3F5006F2CDCB3F5806F0ED0F8
:101C0000B3F5806F26DCB3F5007F14D0B3F5007F09
:101C100020DC802B0CD0B3F5807F03D01AE000F0DD
:101C200047FB18E000F066F915E000F027F812E035
:101C300000F09AFA0FE000F0F7FA0CE000F012F86A
:101C4000074B08221A7006E000BF04E000BF02E064
:101C500000BF00E000BF1037BD4680BDE802002095
:101C60002803002080B400AF034B0122DA7000BFCC
:101C7000BD465DF8047B70479400002080B586B0B7
:101C800000AF8E4B1B78072B0FD0072B00F3108172
:101C9000022B02D0032B04D00AE1884B01221A70D8
:101CA00007E1864B02221A7003E1854B1B78062B55
:101CB00000F2FA8001A252F823F000BFD91C0008FC
:101CC0001B1D00085D1D00089F1D0008E71D000882
:101CD000291E00086B1E00087A4B1B78182B03D1B5
:101CE000784B00221A7005E0764B1B780133DAB28C
:101CF000744B1A70734B1B781A463B1D7249184679
:101D00000EF08CFE00212A2005F074FE3B1D0122FE
:101D10006E49184605F002FFC7E06D4B1B783C2B5F
:101D200003D16B4B00221A7005E0694B1B7801331D
:101D3000DAB2674B1A70664B1B781A463B1D624934
:101D400018460EF06BFE00213F2005F053FE3B1DB0
:101D500001225E49184605F0E1FEA6E05D4B1B78C6
:101D60003C2B03D15B4B00221A7005E0594B1B78CA
:101D70000133DAB2574B1A70564B1B781A463B1D8B
:101D8000514918460EF04AFE0021542005F032FE5B
:101D90003B1D01224D49184605F0C0FE85E04E4B23
:101DA0001B78062B03D14C4B00221A7005E04A4BDE
:101DB0001B780133DAB2484B1A70474B1B781A462E
:101DC000464B53F822203B1D454918460EF026FE8F
:101DD0000C21012005F00EFE3B1D01223B49184657
:101DE00005F09CFE61E03F4B1B781E2B03D93D4B59
:101DF00001221A7005E03B4B1B780133DAB2394BF4
:101E00001A70384B1B781A463B1D2F4918460EF0A6
:101E100005FE19212A2005F0EDFD3B1D01222B496D
:101E2000184605F07BFE40E02F4B1B780B2B03D9A7
:101E30002D4B01221A7005E02B4B1B780133DAB2CF
:101E4000294B1A70284B1B781A463B1D1E49184611
:101E50000EF0E4FD19213F2005F0CCFD3B1D0122D1
:101E60001A49184605F05AFE1FE0204B1B8842F223
:101E70000E72934205D81D4B1B8801339AB21B4B3F
:101E80001A801A4B1B881A463B1D194918460EF03A
:101E9000C5FD1921542005F0ADFD3B1D01220B4964
:101EA000184605F03BFE00E000BF05F0EFFC00E047
:101EB00000BF00BF1837BD4680BD00BF280300200B
:101EC000700000202A0300206C760108AC0000207E
:101ED0002B0300202C0300202E03002024000020D0
:101EE000747601082D0300202F030020300300200A
:101EF0007C76010880B586B000AF8D4B1B78072B30
:101F00000FD0072B00F30E81012B02D0022B04D03F
:101F100008E1874B02221A7005E1854B03221A70F3
:101F200001E1844B1B78062B00F2F88001A252F8E5
:101F300023F000BF511F0008931F0008D51F0008A1
:101F4000172000085F200008A1200008E3200008F7
:101F5000794B1B78002B03D1774B18221A7005E0C0
:101F6000754B1B78013BDAB2734B1A70724B1B78BE
:101F70001A463B1D714918460EF050FD00212A20DB
:101F800005F038FD3B1D01226D49184605F0C6FDE0
:101F9000C5E06C4B1B78002B03D16A4B3C221A70B6
:101FA00005E0684B1B78013BDAB2664B1A70654B53
:101FB0001B781A463B1D614918460EF02FFD002183
:101FC0003F2005F017FD3B1D01225D49184605F035
:101FD000A5FDA4E05C4B1B78002B03D15A4B3C229F
:101FE0001A7005E0584B1B78013BDAB2564B1A7059
:101FF000554B1B781A463B1D504918460EF00EFDF6
:102000000021542005F0F6FC3B1D01224C491846E6
:1020100005F084FD83E04D4B1B78002B03D14B4B27
:1020200006221A7005E0494B1B78013BDAB2474B98
:102030001A70464B1B781A46454B53F822203B1D1D
:10204000444918460EF0EAFC0C21012005F0D2FCB0
:102050003B1D01223A49184605F060FD5FE03E4B0A
:102060001B78012B03D83C4B1F221A7005E03A4B1A
:102070001B78013BDAB2384B1A70374B1B781A4683
:102080003B1D2E4918460EF0C9FC19212A2005F0E7
:10209000B1FC3B1D01222A49184605F03FFD3EE0F8
:1020A0002E4B1B78012B03D82C4B0C221A7005E009
:1020B0002A4B1B78013BDAB2284B1A70274B1B784E
:1020C0001A463B1D1D4918460EF0A8FC19213F2059
:1020D00005F090FC3B1D01221949184605F01EFD34
:1020E0001DE01F4B1B88002B05D01D4B1B88013B9F
:1020F0009AB21B4B1A801A4B1B881A463B1D194972
:1021000018460EF08BFC1921542005F073FC3B1D82
:1021100001220B49184605F001FD00E000BF05F063
:10212000B5FB00E000BF00BF1837BD4680BD00BF53
:1021300028030020700000202A0300206C7601088C
:10214000AC0000202B0300202C0300202E030020D5
:1021500024000020747601082D0300202F030020A6
:10216000300300207C76010880B500AF2C4B1B7833
:10217000013B062B4ED801A252F823F0A121000802
:10218000A1210008A12100089921000815220008BA
:102190000D220008A9210008214B01221A703CE001
:1021A0001F4B00221A7038E01E4B1B78072B33D8C8
:1021B00001A252F823F000BFDF210008D921000856
:1021C000ED210008F3210008F9210008FF21000893
:1021D00005220008E521000800F080FB15E000F072
:1021E0006BFA12E00E4B02221A700EE000F09CFB1C
:1021F0000BE000F0BFFB08E000F0E2FB05E000F0C0
:10220000FDFB02E000F020FC00BF05E0044B0322D0
:102210001A7002E000BF00E000BF00BF80BD00BF39
:10222000280300207000002080B500AF1E4B1B78F3
:10223000052B02D0072B06D033E0FFF711FC1A4B19
:1022400000221A702DE0194B1B78072B27D801A20A
:1022500052F823F07B220008812200088722000820
:102260008D22000893220008992200089F2200086E
:102270007522000800F032FB12E000F055FB0FE081
:1022800000F078FB0CE000F09BFB09E000F0B6FBEF
:1022900006E000F0D9FB03E000F0FCFB00E000BF2B
:1022A00000BF00BF80BD00BF2803002070000020D9
:1022B00080B500AF1F4B1B78082B38D801A252F80D
:1022C00023F000BFE92200081123000801230008C1
:1022D000192300082F2300082F2300082F230008AC
:1022E000F122000821230008124B01221A701FE07E
:1022F00005F09AFF104B07221A7000F0DDF917E085
:1023000005F092FF0B4B07221A7000F0D5F90FE091
:10231000084B04221A700BE0064B06221A7007E0E5
:10232000044B00221A70054B0022DA7000E000BF57
:1023300000BF80BD28030020700000209400002012
:1023400090B589B002AFC24B1A78C24B1B789A4243
:1023500008D005F069FFBE4B1A78BE4B1A70BE4814
:102360000BF042F901230193082300930D23BB4A8C
:102370000121702005F0E6FFB94BD3ED007AB1EEF4
:10238000007AF4EEC77AF1EE10FA03DDB54BB64AE7
:102390001A602AE0B24BD3ED007A9FEDB47AF4EEE6
:1023A000C77AF1EE10FA04D5AE4B4FF000021A6076
:1023B0001BE0AB4B1B681846FEF7C6F8A0A3D3E999
:1023C0000023FDF761FF02460B46104619469EA307
:1023D000D3E90023FEF73AFA02460B4610461946A7
:1023E000FEF702FC03469F4A13609E4BD3ED007A32
:1023F000B2EE047AF4EEC77AF1EE10FA1ED500239D
:102400000193042300930223994A0321722005F0CB
:1024100099FF00230193042300930223944A03218C
:10242000752005F08FFF00230193042300930223FE
:102430008F4A0321782005F085FF6FE0894BD3EDAB
:10244000007AB3EE0E7AF4EEC77AF1EE10FA1ED5EA
:1024500001230193042300930223854A0321722060
:1024600005F070FF00230193042300930223804AA8
:102470000321752005F066FF0023019304230093D8
:1024800002237B4A0321782005F05CFF46E0754B70
:10249000D3ED007A9FED777AF4EEC77AF1EE10FA79
:1024A0001ED501230193042300930223704A0321C4
:1024B000722005F047FF01230193042300930223B8
:1024C0006B4A0321752005F03DFF0023019304238F
:1024D00000930223664A0321782005F033FF1DE0B4
:1024E00001230193042300930223614A03217220F4
:1024F00005F028FF012301930423009302235C4A83
:102500000321752005F01EFF01230193042300938E
:102510000223574A0321782005F014FF564B1B78FD
:102520001A46564B53F82220554B1B781C46554BE8
:102530001B781946544B53F82130381D009323461D
:1025400052490EF06BFA0121012005F053FA3B1DB0
:1025500001224F49184605F0E1FA4E4B1B781A4606
:102560004D4B1B78381D4D490EF058FA0F210120B4
:1025700005F040FA3B1D01224949184605F0CEFA04
:102580002821012005F036FA01224149454805F08D
:10259000C5FA3B1D0222444918460EF03FFA342189
:1025A000012005F027FA3B1D01223949184605F0A4
:1025B000B5FA3E4BD3ED007AFDEEE77A3B1D17EE00
:1025C000902A3B4918460EF029FA28213C2005F0B4
:1025D00011FA3B1D01222E49184605F09FFA334B94
:1025E000D3ED027AFDEEE77A3B1D17EE902A3149D2
:1025F00018460EF013FA34213C2005F0FBF93B1D80
:1026000001222349184605F089FA0123009340234B
:1026100032222521322005F0A6FA0123009325233A
:1026200080222521002005F09EFA05F02FF9642074
:1026300006F0A4FE00BF1C37BD4690BDAFF300807E
:102640003333333333330B40FA7E6ABC7493783FB1
:102650002803002029030020683000206C7B01083B
:10266000FC300020340300200000C8429A995940F1
:102670007C7B010800007042CB0200202400002077
:10268000CC020020CD02002040000020847601080A
:10269000AC000020C8020020C9020020907601088A
:1026A000B40000209C7601086C760108B40200207A
:1026B000A0760108A876010880B588B002AF724BF9
:1026C0001B78072B70D00021012005F093F96F4B88
:1026D0001B78184603F0CAFC6D4B1B78184603F0B4
:1026E000DAFC6C4B1B78184603F0E7FC6A4B1B784E
:1026F000184603F033FC694B1B78184603F040FC86
:10270000674B1B78184603F04DFC664B1B88184638
:1027100003F066FC5D4B1B781A465D4B1B7819462F
:102720005C4B1B78381D00930B465F490EF076F921
:102730003B1D01225D49184605F0F0F90023009386
:102740000B2338220B212A2005F00DFA0C21012041
:1027500005F050F9504B1B781A46554B53F8222080
:102760003B1D544918460EF059F93B1D01224F49B3
:10277000184605F0D3F91921012005F03BF9474B24
:102780001B781A46464B1B781946464B1B88381D4A
:1027900000930B4648490EF041F93B1D0122434985
:1027A000184605F0BBF965E0444B1A78374B1A70B0
:1027B000434B1A78364B1A70424B1A78354B1A70C5
:1027C000414B1A78354B1A70404B1A78324B1A70BD
:1027D0003F4B1A78324B1A703E4B1A88314B1A8095
:1027E00005F022FD0021012005F004F9274B1B789C
:1027F0001A46274B1B781946264B1B78381D009329
:102800000B4629490EF00AF93B1D012227491846BB
:1028100005F084F90C21012005F0ECF81E4B1B7823
:102820001A46234B53F822203B1D224918460EF02E
:10283000F5F83B1D01221D49184605F06FF91921D5
:10284000012005F0D7F8154B1B781A46144B1B785E
:102850001946144B1B88381D00930B4616490EF081
:10286000DDF83B1D01221149184605F057F91A4BB6
:1028700007221A70044B07221A7005F007F800BFF0
:102880001837BD4680BD00BF700000202A0300201D
:102890002B0300202C0300202E0300202D030020FA
:1028A0002F03002030030020B0760108AC00002088
:1028B0002400002074760108C8760108C8020020B0
:1028C000C9020020CA020020CC020020CB02002056
:1028D000CD020020CE0200202803002080B582B067
:1028E00002AF012300930A2338220A212A2005F08F
:1028F0003AF9002300930A234D220A213F2005F0D4
:1029000032F900230093162339221621242005F0E2
:102910002AF904F0BBFF034B00221A7000BFBD462A
:1029200080BD00BF7000002080B582B002AF0023E0
:1029300000930A2338220A212A2005F014F90123E2
:1029400000930A234D220A213F2005F00CF90023B1
:1029500000930A2362220A21542005F004F904F0AE
:1029600095FF034B01221A7000BFBD4680BD00BF1A
:102970007000002080B582B002AF002300930A23CC
:102980004D220A213F2005F0EEF8012300930A238F
:1029900062220A21542005F0E6F800230093162352
:1029A00039221621242005F0DEF804F06FFF034BD6
:1029B00002221A7000BFBD4680BD00BF700000201B
:1029C00080B582B002AF002300930A2362220A215D
:1029D000542005F0C8F8012300931623392216214C
:1029E000242005F0C0F804F051FF034B03221A70B5
:1029F00000BFBD4680BD00BF7000002080B582B022
:102A000002AF00230093162339221621242005F05B
:102A1000AAF8012300932323382223212A2005F03A
:102A2000A2F80023009323234D2223213F2005F009
:102A30009AF804F02BFF034B04221A7000BFBD4626
:102A400080BD00BF7000002080B582B002AF0023BF
:102A500000932323382223212A2005F084F8012320
:102A6000009323234D2223213F2005F07CF80023EF
:102A70000093232370222321542005F074F804F0DE
:102A800005FF034B05221A7000BFBD4680BD00BF85
:102A90007000002080B582B002AF00230093232392
:102AA0004D2223213F2005F05EF8012300932323CC
:102AB00070222321542005F056F804F0E7FE034B62
:102AC00006221A7000BFBD4680BD00BF7000002006
:102AD00090B587B002AF2E4B1A782E4B1B789A42D6
:102AE00050D005F0A1FB4023FB602023BB601C23DA
:102AF0007B60FB6818B2BB6819B27B681AB201230D
:102B000005F0E3F9FB6898B2BB689BB2083399B251
:102B1000FB689AB2BB689BB2123B9BB20124009443
:102B200005F021F8FB6898B2BB689BB2123B99B2E2
:102B3000FB689BB2043B9AB2BB689BB20A3B9BB258
:102B40000124009405F00FF8FB6898B2BB689BB2B3
:102B5000123B99B2FB689BB204339AB2BB689BB23A
:102B60000A3B9BB20124009404F0FDFFFB6818B2FD
:102B7000BB6819B20123022205F07BFA054B1A78D3
:102B8000034B1A70FEF7B0FA00BF1437BD4690BD74
:102B9000290300202803002090B597B002AF87EDED
:102BA000010A4023FB642023BB641C237B647B6CF1
:102BB000083B3B649FEDC37AD7ED017A77EE677AE5
:102BC0009FEDC17A77EEC77A9FEDC07A67EE877A7C
:102BD000C7ED0F7A9FEDBC7AD7ED017A77EE677A71
:102BE0009FEDB97A77EEC77A9FEDB87A67EE877A6C
:102BF000C7ED0E7A9FEDB67AD7ED017A77EE677A58
:102C00009FEDB17A77EEC77A9FEDB07A67EE877A5B
:102C1000C7ED0D7A9FEDAF7AD7ED017A77EE677A3F
:102C20009FEDA97A77EEC77A9FEDA87A67EE877A4B
:102C3000C7ED0C7A97ED0F0A10F052FFB0EE407A14
:102C40003B6C07EE903AF8EEE77A67EE277AFDEEF6
:102C5000E77A17EE902AFB6C1344033BFB6297ED77
:102C60000F0A10F075FFB0EE407A3B6C07EE903A19
:102C7000F8EEE77A67EE277AFDEEE77A17EE902A0C
:102C8000BB6C1344053BBB6297ED0E0A10F028FFA6
:102C9000B0EE407A3B6C07EE903AF8EEE77A67EEDA
:102CA000277AFDEEE77A17EE902AFB6C1344033B7C
:102CB0007B6297ED0E0A10F04BFFB0EE407A3B6C52
:102CC00007EE903AF8EEE77A67EE277AFDEEE77ABC
:102CD00017EE902ABB6C1344053B3B6297ED0D0A3F
:102CE00010F0FEFEB0EE407A3B6C07EE903AF8EE44
:102CF000E77A67EE277AFDEEE77A17EE902AFB6C0B
:102D00001344033BFB6197ED0D0A10F021FFB0EE79
:102D1000407A3B6C07EE903AF8EEE77A67EE277A56
:102D2000FDEEE77A17EE902ABB6C1344053BBB61BE
:102D300097ED0C0A10F0D4FEB0EE407A3B6C07EE33
:102D4000903AF8EEE77A67EE277AFDEEE77A17EE2B
:102D5000902AFB6C1344033B7B6197ED0C0A10F047
:102D6000F7FEB0EE407A3B6C07EE903AF8EEE77A69
:102D700067EE277AFDEEE77A17EE902ABB6C1344D4
:102D8000053B3B61544B1B689BB2013B98B2534BD4
:102D90001B689BB2013B99B2002300930C230922CC
:102DA00005F046F84E4B1B689BB2013B98B24D4B69
:102DB0001B689BB2013B99B2002300930C230922AC
:102DC00005F036F8484B1B689BB2013B98B2474B65
:102DD0001B689BB2013B99B2002300930C2309228C
:102DE00005F026F8424B1B689BB2013B98B2414B61
:102DF0001B689BB2013B99B2002300930C2309226C
:102E000005F016F8FB6C18B2BB6C19B27B6C1AB2E9
:102E1000012305F05AF8FB6C98B2BB6C9BB20833E7
:102E200099B2FB6C9AB2BB6C9BB2123B9BB2012471
:102E3000009404F098FEFB6C98B2BB6C9BB2123B02
:102E400099B2FB6C9BB2043B9AB2BB6C9BB20A3B3F
:102E50009BB20124009404F086FEFB6C98B2BB6C1C
:102E60009BB2123B99B2FB6C9BB204339AB2BB6C1F
:102E70009BB20A3B9BB20124009404F074FEFB6CED
:102E800018B2BB6C19B20123022205F0F2F8FB6AFA
:102E90009BB2BA6A92B21146184604F0ABFD012209
:102EA0001549164804F03AFE7B6A9BB23A6A92B220
:102EB0001146184604F09EFD01220F49104804F007
:102EC0002DFE1FE0000000000000B44235FA8E3CE9
:102ED0000000344300008743740000207800002085
:102EE0007C0000208000002084000020880000205A
:102EF0008C00002090000020AC000020E07601084B
:102F0000E4760108FB699BB2BA6992B21146184691
:102F100004F070FD01222349234804F0FFFD7B6982
:102F20009BB23A6992B21146184604F063FD012241
:102F30001C491E4804F0F2FD1D4AFB6A13601D4A3D
:102F4000BB6A13601C4A7B6A13601C4A3B6A1360AD
:102F50001B4AFB6913601B4ABB6913601A4A7B69F1
:102F600013601A4A3B6913607868FDF7EDFA024670
:102F70000B4607F1080016490DF050FD28215C2092
:102F800004F038FD07F1080301220649184604F051
:102F9000C5FD04F07BFC642006F0F0F900BF543757
:102FA000BD4690BDAC000020E8760108EC76010833
:102FB00074000020780000207C00002080000020A9
:102FC00084000020880000208C0000209000002059
:102FD000F07601080000000080B582B002AF05F075
:102FE00023F901230193082300930D237C4A012137
:102FF000702005F0A7F97B4BD3ED007AB1EE007A93
:10300000F4EEC77AF1EE10FA03DD774B774A1A60D7
:103010002AE0744BD3ED007A9FED757AF4EEC77A0F
:10302000F1EE10FA04D5704B4FF000021A601BE06D
:103030006C4B1B681846FDF787FA65A3D3E900239C
:10304000FDF722F902460B461046194662A3D3E962
:103050000023FDF7FBFB02460B4610461946FDF721
:10306000C3FD0346604A13605F4BD3ED007AB2EEB6
:10307000047AF4EEC77AF1EE10FA1ED5002301931C
:103080000423009302235B4A0321722005F05AF9BE
:1030900000230193042300930223564A0321752041
:1030A00005F050F900230193042300930223514AB1
:1030B0000321782005F046F96FE04B4BD3ED007A01
:1030C000B3EE0E7AF4EEC77AF1EE10FA1ED50123B4
:1030D0000193042300930223464A0321722005F042
:1030E00031F900230193042300930223414A032171
:1030F000752005F027F90023019304230093022390
:103100003C4A0321782005F01DF946E0364BD3ED0B
:10311000007A9FED397AF4EEC77AF1EE10FA1ED5F7
:1031200001230193042300930223324A03217220D6
:1031300005F008F9012301930423009302232D4A8B
:103140000321752005F0FEF800230193042300936A
:103150000223284A0321782005F0F4F81DE001231A
:103160000193042300930223224A0321722005F0D5
:10317000E9F8012301930423009302231D4A03214C
:10318000752005F0DFF80123019304230093022347
:10319000184A0321782005F0D5F80F21282004F0E3
:1031A00029FC01221549164804F0B8FC2D210820FD
:1031B00004F020FC01221349134804F0AFFC04F092
:1031C00065FB124B08221A7000BFBD4680BD00BFD0
:1031D0003333333333330B40FA7E6ABC7493783F16
:1031E0006C7B0108FC300020340300200000C84242
:1031F0009A9959407C7B010800007042BC00002075
:10320000F8760108AC000020FC76010828030020B5
:1032100080B582B002AF364B1B78022B14D100234D
:103220000193152300937D23324A1621022005F0D5
:1032300089F801230193152300937D232D4A002152
:10324000022005F07FF847E004F0EEFF0123019330
:10325000102300931023284A0221072005F072F85A
:1032600001230193102300931023244A18210720DF
:1032700005F068F801230193102300931023204ADE
:103280002D21072005F05EF8012301930B23009305
:1032900037231C4A07211E2005F054F8012301930F
:1032A0000B2300933A23184A1C211E2005F04AF8EC
:1032B00001230193092300931623144A32211E206F
:1032C00005F040F801230193152300937D23094A5B
:1032D0000021022005F036F804F0D8FA642006F048
:1032E0004DF80B4B01221A7000BFBD4680BD00BFD8
:1032F00029030020F8780108487A0108687A010853
:10330000887A0108A87A0108147B0108F87A010874
:103310002803002080B582B002AF414B1B78012BFF
:1033200002D0032B15D029E000230193152300932D
:103330007D233C4A0021022005F004F8012301937B
:10334000152300937D23374A1621022004F0FAFF4B
:103350005DE001230193152300937D23314A16215B
:10336000022004F0EFFF00230193152300937D2337
:103370002C4A2B21022004F0E5FF48E004F054FF22
:1033800001230193102300931023274A02210720D1
:1033900004F0D8FF01230193102300931023234A44
:1033A0001821072004F0CEFF01230193102300937E
:1033B00010231F4A2D21072004F0C4FF012301938D
:1033C0000B23009337231B4A07211E2004F0BAFF6A
:1033D000012301930B2300933A23174A1C211E203B
:1033E00004F0B0FF01230193092300931623134A2D
:1033F00032211E2004F0A6FF012301931523009320
:103400007D23084A1621022004F09CFF00BF04F02F
:103410003DFA642005F0B2FF00BFBD4680BD00BF8D
:1034200029030020F8780108487A0108687A010821
:10343000887A0108A87A0108147B0108F87A010843
:1034400080B582B002AF364B1B78022B14D100231B
:103450000193152300937D23324A1621022004F0A4
:1034600071FF01230193152300937D232D4A2B2106
:10347000022004F067FF48E004F0D6FE0123019328
:10348000102300931023284A0221072004F05AFF3A
:1034900001230193102300931023244A18210720AD
:1034A00004F050FF01230193102300931023204ABE
:1034B0002D21072004F046FF012301930B230093E5
:1034C00037231C4A07211E2004F03CFF01230193EF
:1034D0000B2300933A23184A1C211E2004F032FFCC
:1034E00001230193092300931623144A32211E203D
:1034F00004F028FF01230193152300937D23094A3B
:103500002B21022004F01EFF00BF04F0BFF964204D
:1035100005F034FF0A4B03221A7000BFBD4680BD80
:1035200029030020F8780108487A0108687A010820
:10353000887A0108A87A0108147B0108F87A010842
:103540002803002080B483B000AF78607B68002B34
:1035500034D0204B1B78002B32D17B689B78022B18
:1035600007D07B689B78FF2B03D07B689B78002B70
:1035700028D17B6893ED027A174BD3ED007AB4EE35
:10358000677AF1EE10FA0AD17B6893ED037A134B58
:10359000D3ED007AB4EE677AF1EE10FA14D07B68BE
:1035A0009B680F4A13607B68DB680E4A13600E4B02
:1035B00000221A70074B01221A7006E000BF04E0D7
:1035C00000BF02E000BF00E000BF0C37BD465DF861
:1035D000047B704738030020440300204803002088
:1035E0003C030020400300204C03002080B400AFC7
:1035F000054B1B78002B14BF01230023DBB21846B8
:10360000BD465DF8047B70473803002080B52DED82
:10361000028BA0B000AF07F10C03184603F078F856
:103620003B1D184603F082F9B7F90C3007EE903ACB
:10363000F8EEE77AC7ED1E7AB7F90E3007EE903A4A
:10364000F8EEE77AC7ED1D7AB7F9103007EE903A39
:10365000F8EEE77AC7ED1C7AB7F9043007EE903A36
:10366000F8EEE77AC7ED1B7AB7F9063007EE903A25
:10367000F8EEE77AC7ED1A7AB7F9083007EE903A14
:10368000F8EEE77AC7ED197ABC4B3B66BC4BFB659D
:10369000BC4BBB65BC4B7B65BC4B3B65BC4BFB640F
:1036A000BC4BBB64BC4B7B64BC4B3B64BC4BFB6303
:1036B000BC4BBB63BC4B7B6397ED1B7AD7ED187A91
:1036C00077EE677AC7ED0C7A97ED1A7AD7ED177A0D
:1036D00077EE677AC7ED0B7A97ED197AD7ED167A00
:1036E00077EE677AC7ED0A7A97ED157AD7ED0C7AFF
:1036F00027EE277AD7ED146AD7ED0B7A66EEA77A14
:1037000037EE277AD7ED136AD7ED0A7A66EEA77AF5
:1037100077EE277AC7ED097A97ED127AD7ED0C7A12
:1037200027EE277AD7ED116AD7ED0B7A66EEA77AE6
:1037300037EE277AD7ED106AD7ED0A7A66EEA77AC8
:1037400077EE277AC7ED087A97ED0F7AD7ED0C7AE6
:1037500027EE277AD7ED0E6AD7ED0B7A66EEA77AB9
:1037600037EE277AD7ED0D6AD7ED0A7A66EEA77A9B
:1037700077EE277AC7ED077AD7ED1E7AB1EE678A22
:10378000D7ED1D7A27EEA77AD7ED1C7A67EEA77AD8
:1037900077EE277AB0EE670A10F080F9F0EE407A03
:1037A000F0EE670AB0EE480A10F076F910EE103A23
:1037B0001846FCF7C9FE02460B467C49C1E90023C6
:1037C000D7ED1C0A97ED1D0A10F066F910EE103ABD
:1037D0001846FCF7B9FE02460B467549C1E90023BD
:1037E000724BD3E9002310461946FDF7FDF9034655
:1037F00000EE103A10F074F9B0EE407AD7ED097A85
:1038000027EE278A6A4BD3E9002310461946FDF7B5
:10381000EBF9034600EE103A10F09AF9B0EE407A58
:10382000D7ED087A67EE278A604BD3E9002310466C
:103830001946FDF7D9F9034600EE103A10F088F961
:10384000F0EE407A68EEA77A38EE278A584BD3E933
:10385000002310461946FDF7C7F9034600EE103A5B
:1038600010F03EF9B0EE407AD7ED077A67EE278A7E
:103870004E4BD3E9002310461946FDF7B5F9034630
:1038800000EE103A10F064F9F0EE407A68EEA77A94
:1038900078EE677AC7ED067A454BD3E900231046E8
:1038A0001946FDF7A1F9034600EE103A10F018F999
:1038B000B0EE407AD7ED087A27EE278A3C4BD3E961
:1038C000002310461946FDF78FF9034600EE103A23
:1038D00010F03EF9B0EE407AD7ED077A67EE277A1E
:1038E00078EE277AC7ED057AD7ED060A97ED050A37
:1038F00010F0D2F8F0EE407A9FED2E7A67EE877ADC
:10390000C7ED1F7AD7ED1F7A9FED2B7A77EE877A76
:10391000C7ED1F7AD7ED1F7AF5EEC07AF1EE10FAF7
:1039200008D5D7ED1F7A9FED257A77EE877AC7ED18
:103930001F7A10E0D7ED1F7A9FED207AF4EEC77A58
:10394000F1EE10FA07DBD7ED1F7A9FED1C7A77EEC8
:10395000C77AC7ED1F7AF86FFCF7F6FD02460B46F3
:103960001749C1E90023FB6F07EE903AB0EE670AF2
:103970008037BD46BDEC028B80BD00BF060159C239
:103980000AD7233E39B42BC2EE7C7F3F4260E5BBB1
:103990006F1203BB6F12833A9CC4803F68916DBD68
:1039A000F4FD54BC77BE1F3DDBF97E3FD8020020FA
:1039B000D0020020E12E65420000C8420000B4435E
:1039C000E0020020000000002DE9F043B1B002AF9A
:1039D000002003F08DFF3B4B1B78012B40F08280D1
:1039E000012300933C237C220221022004F0B6F93B
:1039F00001230093382378220421042004F0AEF937
:103A000008210C2003F0F6FF01222F492F4804F073
:103A100085F81C21182003F0EDFF01222C492D48C8
:103A200004F07CF82C4B1B78002B11D10123009360
:103A30000E2330222A210C2004F0FAF92C21102028
:103A400003F0D8FF00222249244804F067F810E070
:103A5000012300930E2330222A210C2004F07EF94A
:103A60002C21102003F0C6FF012219491B4804F045
:103A700055F8194B1B78012B11D1012300930E230C
:103A800030222A21442004F0D3F92C21482003F0CD
:103A9000B1FF00220E49124804F040F882E30123EE
:103AA00000930E2330222A21442004F057F92C21C0
:103AB000482003F09FFF01220549094804F02EF831
:103AC00070E300BF38030020B40000202077010815
:103AD000AC0000202C7701084C0300203C77010843
:103AE00044770108CC4B1B78022B40F05B83FFF737
:103AF0008DFD87ED2A0AC94B1B681846FCF724FD8B
:103B000002460B46C7E92823C44B5B681846FCF7FE
:103B10001BFD02460B46C7E92623C14B1B6818460E
:103B2000FCF712FDD7E92823FCF7AEFB02460B4653
:103B300010461946B2A3D3E90023FCF75DFD024607
:103B40000B46C7E92423B74B1B681846FCF7FCFC5F
:103B5000D7E92623FCF798FB02460B461046194688
:103B6000A7A3D3E90023FCF747FD02460B46C7E9AC
:103B70002223AB4B1B681846FCF7E6FCD7E9282349
:103B8000FCF784FB02460B46104619464FF0000234
:103B9000A54BFCF731FD02460B461046194698A38B
:103BA000D3E90023FCF728FD02460B46C7E9202392
:103BB00097ED200B0FF0E8FE53EC102BD7E9220114
:103BC000FCF71AFD02460B46C7E91E23D7E924235A
:103BD000C7E91C23D7E91E23D7E91E01FCF70CFD1A
:103BE00002460B4614461D46D7E91C23D7E91C01A3
:103BF000FCF702FD02460B4620462946FCF746FB31
:103C000002460B4643EC172BB0EE470AF0EE670A6C
:103C10000FF086FE51EC100B7BA3D3E90023FCF7D9
:103C2000EBFC02460B46C7E91A2375A3D3E9002330
:103C3000D7E92801FCF7E0FC02460B46C7E9182348
:103C4000774BD3ED007A9FED797A67EE877A17EE9E
:103C5000900AFCF779FC02460B46C7E9162397ED5C
:103C6000220B0FF0D5FE55EC104B97ED160B0FF015
:103C70008BFE53EC102B20462946FCF7BDFC024678
:103C80000B46C7E9142397ED180B0FF07DFE55EC9A
:103C9000104B97ED160B0FF0BBFE53EC102B20468C
:103CA0002946FCF7A9FC02460B4614461D4697ED33
:103CB000180B0FF0ADFE59EC108B97ED160B0FF0B3
:103CC00063FE53EC102B40464946FCF795FC024638
:103CD0000B469046994697ED220B0FF055FE53EC9C
:103CE000102B40464946FCF787FC02460B4620460F
:103CF0002946FCF7C9FA02460B46C7E9122397ED9D
:103D0000121B97ED140B0FF04DFD51EC100B40A35F
:103D1000D3E90023FCF770FC02460B46C7E92C23CD
:103D20004FF000024FF00003D7E92C01FCF7D6FE5C
:103D30000346002B0AD04FF000023D4BD7E92C017F
:103D4000FCF7A4FA02460B46C7E92C23D7F8A800D3
:103D5000FCF7FAFB02460B46D7E92C01FCF794FA74
:103D600002460B4610461946FCF73EFF0346C7F8CD
:103D7000AC30D7ED2B7AF5EEC07AF1EE10FA07D51C
:103D8000D7ED2B7A9FED2B7A77EE877AC7ED2B7ADA
:103D9000D7ED2B7A9FED277AF4EEC77AF1EE10FA81
:103DA00007DBD7ED2B7A9FED237A77EEC77AC7ED45
:103DB0002B7A0221022003F01DFE01221E491F481A
:103DC00003F0ACFE012300930D2346220D210220B7
:103DD00003F0C9FE3B1D1A4A202118460CF0E8FDED
:103DE0001221022003F006FE3B1D01221249184653
:103DF00003F094FE094B1B7A002B5CD022E000BF3D
:103E0000000000A046DF913F00000000AE4D584189
:103E100000000020DCA54C4038030020F004002006
:103E20003C030020400300200000E03F35FA8E3CB8
:103E3000008076400000B443AC0000204C770108BD
:103E400058770108464BD3ED007AF5EE407AF1EE53
:103E500010FA30D0434BD3ED007AF5EE407AF1EE14
:103E600010FA28D0D7E91A01FCF776FE0346381D70
:103E70003D4A20210CF09CFD1E21022003F0BAFDDA
:103E80003B1D01223949184603F048FED7E92C01B1
:103E9000FCF762FE0346381D354A20210CF088FDF0
:103EA0002A21022003F0A6FD3B1D01222F491846BE
:103EB00003F034FE08E01E21022003F09BFD0122E6
:103EC0002A492C4803F02AFED7ED2A7AFDEEE77A3C
:103ED000381D17EE903A284A20210CF069FD342154
:103EE000022003F087FD3B1D01222049184603F004
:103EF00015FE60237B6420233B641223FB631F4B6E
:103F00001B7A002B46D0164BD3ED007AF5EE407AA3
:103F1000F1EE10FA3ED0134BD3ED007AF5EE407A75
:103F2000F1EE10FA36D04FF00002154BD7E91A0126
:103F3000FCF7D4FD0346002B2CD07B6C9BB2183BC6
:103F40009AB23B6C9BB2053B9BB21946104603F0FC
:103F500051FD012205490B4803F0E0FD22E100BFBD
:103F60003C0300204003002064770108AC000020DF
:103F7000707701087C77010888770108F004002039
:103F800000001840947701080000B44235FA8E3CD6
:103F9000268D27407B6C18B23B6C19B20123152289
:103FA00003F093FF7B6C98B23B6C9BB2153B99B2CC
:103FB0007B6C9AB23B6C9BB2133B9BB20124009486
:103FC00003F0D1FD7B6C98B23B6C9BB2133399B27A
:103FD0007B6C9AB23B6C9BB215339BB2012400946C
:103FE00003F0C1FD7B6C9BB2153B98B23B6C99B260
:103FF0007B6C9BB2133B9AB23B6C9BB20124009446
:1040000003F0B1FD7B6C9BB2133398B23B6C99B259
:104010007B6C9BB215339AB23B6C9BB2012400942B
:1040200003F0A1FDD7ED2B7A1FED297A77EEC77A41
:104030001FED2A7A67EE877AC7ED0E7A97ED0E0AA2
:104040000FF04EFDB0EE407AFB6B07EE903AF8EEC3
:10405000E77A67EE277AFDEEE77A17EE902A7B6C17
:1040600013447B6397ED0E0A0FF072FDB0EE407AB9
:10407000FB6B07EE903AF8EEE77A67EE277AFDEEF3
:10408000E77A17EE902A3B6C13443B637B6C98B243
:104090003B6C99B27B6B9AB23B6B9BB20124009450
:1040A00003F061FDD7ED0E7A1FED477A77EE877A40
:1040B000C7ED0B7AD7ED0E7A1FED4B7A77EEC77A04
:1040C000C7ED0A7A05237B627B6B9CB23B6B9DB28A
:1040D00097ED0B0A0FF004FDB0EE407A7B6A07EE15
:1040E000903AF8EEE77A67EE277AFDEEE77A17EE78
:1040F000903A9AB27B6B9BB213449EB297ED0B0A37
:104100000FF026FDB0EE407A7B6A07EE903AF8EEAB
:10411000E77A67EE277AFDEEE77A17EE903A9AB2E1
:104120003B6B9BB213449BB201220092324629465C
:10413000204603F018FD7B6B9CB23B6B9DB297ED64
:104140000A0A0FF0CDFCB0EE407A7B6A07EE903A97
:10415000F8EEE77A67EE277AFDEEE77A17EE903A07
:104160009AB27B6B9BB213449EB297ED0A0A0FF092
:10417000EFFCB0EE407A7B6A07EE903AF8EEE77A11
:1041800067EE277AFDEEE77A17EE903A9AB23B6B2C
:104190009BB213449BB2012200923246294620462C
:1041A00003F0E1FC03F072FB00BFBC37BD46BDE885
:1041B000F08300BF80B582B000AF0346FB802F4B79
:1041C0001B78002B01D1002354E02C4B1B78012BD2
:1041D00032D1FB88802B03D0FB88B3F5007F0BD155
:1041E000274B1B78002B0CBF01230023DBB21A46A0
:1041F000234B1A7001233DE0FB88B3F5806F38D163
:104200001F4B1B78002B05D11C4B02221A7004F0A7
:104210000BF80FE0194B00221A7004F005F8194B47
:1042200064221A70184B1B68184A1360184B1B68DD
:10423000184A136001231DE0104B1B78022B18D184
:10424000FB88B3F5806F02D0FB88802B11D10B4B1C
:1042500000221A7003F0E8FF0A4B64221A700A4B1E
:104260001B680A4A13600A4B1B680A4A1360012341
:1042700000E0012318460837BD4680BD3803002002
:104280004C030020290300203C03002044030020AD
:10429000400300204803002080B485B000AF786060
:1042A0007B68002B27D01A4B1B78002B25D17B680D
:1042B000DB78022B02D17B689B7801E07B685B781E
:1042C000FB73FB7B022B1AD0FB7B124AD35C002BC7
:1042D00017D1114AFB7B13707B689B680F4A1360F0
:1042E0007B68DB680E4A13600E4B00221A70084B85
:1042F00001221A7006E000BF04E000BF02E000BF28
:1043000000E000BF1437BD465DF8047B704700BF76
:104310004D0300205C0300204E03002050030020CA
:10432000540300205803002080B400AF054B1B78D5
:10433000002B14BF01230023DBB21846BD465DF8F5
:10434000047B70474D03002080B52DED028BA0B09B
:1043500000AF07F10C03184602F0DAF93B1D1846CE
:1043600002F0E4FAB7F90C3007EE903AF8EEE77A8B
:10437000C7ED1E7AB7F90E3007EE903AF8EEE77AFD
:10438000C7ED1D7AB7F9103007EE903AF8EEE77AEC
:10439000C7ED1C7AB7F9043007EE903AF8EEE77AE9
:1043A000C7ED1B7AB7F9063007EE903AF8EEE77AD8
:1043B000C7ED1A7AB7F9083007EE903AF8EEE77AC7
:1043C000C7ED197ABC4B3B66BC4BFB65BC4BBB6570
:1043D000BC4B7B65BC4B3B65BC4BFB64BC4BBB64C3
:1043E000BC4B7B64BC4B3B64BC4BFB63BC4BBB63B7
:1043F000BC4B7B6397ED1B7AD7ED187A77EE677A23
:10440000C7ED0C7A97ED1A7AD7ED177A77EE677ABF
:10441000C7ED0B7A97ED197AD7ED167A77EE677AB2
:10442000C7ED0A7A97ED157AD7ED0C7A27EE277A41
:10443000D7ED146AD7ED0B7A66EEA77A37EE277AB6
:10444000D7ED136AD7ED0A7A66EEA77A77EE277A68
:10445000C7ED097A97ED127AD7ED0C7A27EE277A15
:10446000D7ED116AD7ED0B7A66EEA77A37EE277A89
:10447000D7ED106AD7ED0A7A66EEA77A77EE277A3B
:10448000C7ED087A97ED0F7AD7ED0C7A27EE277AE9
:10449000D7ED0E6AD7ED0B7A66EEA77A37EE277A5C
:1044A000D7ED0D6AD7ED0A7A66EEA77A77EE277A0E
:1044B000C7ED077AD7ED1E7AB1EE678AD7ED1D7A80
:1044C00027EEA77AD7ED1C7A67EEA77A77EE277AE0
:1044D000B0EE670A0FF0E2FAF0EE407AF0EE670A0B
:1044E000B0EE480A0FF0D8FA10EE103A1846FCF772
:1044F0002BF802460B467C49C1E90023D7ED1C0A84
:1045000097ED1D0A0FF0C8FA10EE103A1846FCF7A6
:104510001BF802460B467549C1E90023724BD3E9EB
:10452000002310461946FCF75FFB034600EE103AE5
:104530000FF0D6FAB0EE407AD7ED097A27EE278A47
:104540006A4BD3E9002310461946FCF74DFB03469E
:1045500000EE103A0FF0FCFAB0EE407AD7ED087A90
:1045600067EE278A604BD3E9002310461946FCF713
:104570003BFB034600EE103A0FF0EAFAF0EE407A09
:1045800068EEA77A38EE278A584BD3E90023104605
:104590001946FCF729FB034600EE103A0FF0A0FA8B
:1045A000B0EE407AD7ED077A67EE278A4E4BD3E913
:1045B000002310461946FCF717FB034600EE103A9D
:1045C0000FF0C6FAF0EE407A68EEA77A78EE677AD6
:1045D000C7ED067A454BD3E9002310461946FCF790
:1045E00003FB034600EE103A0FF07AFAB0EE407A81
:1045F000D7ED087A27EE278A3C4BD3E900231046F3
:104600001946FCF7F1FA034600EE103A0FF0A0FA53
:10461000B0EE407AD7ED077A67EE277A78EE277A00
:10462000C7ED057AD7ED060A97ED050A0FF034FAC3
:10463000F0EE407A9FED2E7A67EE877AC7ED1F7A0B
:10464000D7ED1F7A9FED2B7A77EE877AC7ED1F7A29
:10465000D7ED1F7AF5EEC07AF1EE10FA08D5D7ED56
:104660001F7A9FED257A77EE877AC7ED1F7A10E0E3
:10467000D7ED1F7A9FED207AF4EEC77AF1EE10FAAB
:1046800007DBD7ED1F7A9FED1C7A77EEC77AC7ED6F
:104690001F7AF86FFBF758FF02460B461749C1E92E
:1046A0000023FB6F07EE903AB0EE670A8037BD46F5
:1046B000BDEC028B80BD00BF060159C20AD7233E64
:1046C00039B42BC2EE7C7F3F4260E5BB6F1203BB67
:1046D0006F12833A9CC4803F68916DBDF4FD54BC59
:1046E00077BE1F3DDBF97E3FD8020020D0020020BC
:1046F000E12E65420000C8420000B443E002002001
:104700002DE9F043B1B002AF002003F0F1F83F4BC8
:104710001B78012B40F08C80012300933C237C22EA
:104720000221022003F01AFB012300933823782290
:104730000421042003F012FB08210C2003F05AF995
:1047400001223349334803F0E9F9334B1B78381D14
:10475000324A20210CF02CF91C211C2003F04AF9CC
:104760003B1D01222E49184603F0D8F92D4B1B782A
:10477000002B11D1012300930E2330222A210C207B
:1047800003F056FB2C21102003F034F900222449B9
:10479000254803F0C3F910E0012300930E233022D3
:1047A0002A210C2003F0DAFA2C21102003F022F940
:1047B00001221B491C4803F0B1F91A4B1B78012B4D
:1047C00011D1012300930E2330222A21442003F02B
:1047D0002FFB2C21482003F00DF90022104913482B
:1047E00003F09CF988E3012300930E2330222A2151
:1047F000442003F0B3FA2C21482003F0FBF80122F7
:1048000007490A4803F08AF976E300BF4D03002008
:10481000B40000209C7701084E030020A87701080F
:10482000AC00002058030020B8770108C0770108C9
:10483000CD4B1B78022B40F05F83FFF785FD87EDA2
:104840002A0ACA4B1B681846FBF77EFE02460B4637
:10485000C7E92823C54B5B681846FBF775FE02467F
:104860000B46C7E92623C24B1B681846FBF76CFEB4
:10487000D7E92823FBF708FD02460B4610461946E8
:10488000B3A3D3E90023FBF7B7FE02460B46C7E903
:104890002423B84B1B681846FBF756FED7E926239E
:1048A000FBF7F2FC02460B4610461946A8A3D3E9D3
:1048B0000023FBF7A1FE02460B46C7E92223AC4BBF
:1048C0001B681846FBF740FED7E92823FBF7DEFC00
:1048D00002460B46104619464FF00002A64BFBF766
:1048E0008BFE02460B461046194699A3D3E90023D6
:1048F000FBF782FE02460B46C7E9202397ED200B0B
:104900000FF042F853EC102BD7E92201FBF774FEAD
:1049100002460B46C7E91E23D7E92423C7E91C2317
:10492000D7E91E23D7E91E01FBF766FE02460B46B8
:1049300014461D46D7E91C23D7E91C01FBF75CFE92
:1049400002460B4620462946FBF7A0FC02460B46D2
:1049500043EC172BB0EE470AF0EE670A0EF0E0FFCB
:1049600051EC100B7CA3D3E90023FBF745FE024674
:104970000B46C7E91A2376A3D3E90023D7E9280118
:10498000FBF73AFE02460B46C7E91823784BD3EDF6
:10499000007A9FED7A7A67EE877A17EE900AFBF736
:1049A000D3FD02460B46C7E9162397ED220B0FF005
:1049B0002FF855EC104B97ED160B0EF0E5FF53EC6E
:1049C000102B20462946FBF717FE02460B46C7E987
:1049D000142397ED180B0EF0D7FF55EC104B97ED05
:1049E000160B0FF015F853EC102B20462946FBF759
:1049F00003FE02460B4614461D4697ED180B0FF0BA
:104A000007F859EC108B97ED160B0EF0BDFF53EC29
:104A1000102B40464946FBF7EFFD02460B469046F9
:104A2000994697ED220B0EF0AFFF53EC102B40464A
:104A30004946FBF7E1FD02460B4620462946FBF7B7
:104A400023FC02460B46C7E9122397ED121B97ED94
:104A5000140B0EF0A7FE51EC100B41A3D3E9002379
:104A6000FBF7CAFD02460B46C7E92C234FF00002B4
:104A70004FF00003D7E92C01FCF730F80346002B78
:104A80000AD04FF000023E4BD7E92C01FBF7FEFBAA
:104A900002460B46C7E92C23D7F8A800FBF754FDC4
:104AA00002460B46D7E92C01FBF7EEFB02460B460C
:104AB00010461946FCF798F80346C7F8AC30D7ED16
:104AC0002B7AF5EEC07AF1EE10FA07D5D7ED2B7AF6
:104AD0009FED2C7A77EE877AC7ED2B7AD7ED2B7A7C
:104AE0009FED287AF4EEC77AF1EE10FA07DBD7EDE6
:104AF0002B7A9FED247A77EEC77AC7ED2B7A0221C5
:104B0000022002F077FF01221F49204803F006F837
:104B1000012300930D2346220D21022003F023F8E8
:104B20001B4B1B78381D1B4A20210BF041FF122123
:104B3000022002F05FFF3B1D01221349184602F0DC
:104B4000EDFF0A4B1B7A002B26E000BFAFF300807D
:104B5000000000A046DF913F00000000AE4D58412C
:104B600000000020DCA54C404D030020F004002094
:104B700050030020540300200000E03F35FA8E3C33
:104B8000008076400000B443AC000020C8770108E4
:104B90004E030020D477010838D0464BD3ED007A7D
:104BA000F5EE407AF1EE10FA30D0434BD3ED007AB7
:104BB000F5EE407AF1EE10FA28D0D7E91A01FBF7AA
:104BC000CBFF0346381D3D4A20210BF0F1FE1E218C
:104BD000022002F00FFF3B1D01223949184602F066
:104BE0009DFFD7E92C01FBF7B7FF0346381D354A77
:104BF00020210BF0DDFE2A21022002F0FBFE3B1DEE
:104C000001222F49184602F089FF08E01E210220E8
:104C100002F0F0FE01222A492B4802F07FFFD7ED77
:104C20002A7AFDEEE77A381D17EE903A274A2021BE
:104C30000BF0BEFE3421022002F0DCFE3B1D0122FF
:104C40001F49184602F06AFF60237B6420233B64FF
:104C50001223FB631E4B1B7A002B45D0154BD3ED63
:104C6000007AF5EE407AF1EE10FA3DD0124BD3ED1A
:104C7000007AF5EE407AF1EE10FA35D04FF00002EE
:104C8000144BD7E91A01FBF729FF0346002B2BD061
:104C90007B6C9BB2183B9AB23B6C9BB2053B9BB2C0
:104CA0001946104602F0A6FE012205490A4802F004
:104CB00035FF21E15003002054030020E077010874
:104CC000AC000020EC770108F877010804780108AF
:104CD000F004002000001840107801080000B442E1
:104CE00035FA8E3C268D27407B6C18B23B6C19B28E
:104CF0000123152203F0E9F87B6C98B23B6C9BB260
:104D0000153B99B27B6C9AB23B6C9BB2133B9BB246
:104D10000124009402F027FF7B6C98B23B6C9BB29D
:104D2000133399B27B6C9AB23B6C9BB215339BB236
:104D30000124009402F017FF7B6C9BB2153B98B2E4
:104D40003B6C99B27B6C9BB2133B9AB23B6C9BB2AF
:104D50000124009402F007FF7B6C9BB2133398B2DE
:104D60003B6C99B27B6C9BB215339AB23B6C9BB295
:104D70000124009402F0F7FED7ED2B7A1FED297A7B
:104D800077EEC77A1FED2A7A67EE877AC7ED0E7A3B
:104D900097ED0E0A0EF0A4FEB0EE407AFB6B07EE24
:104DA000903AF8EEE77A67EE277AFDEEE77A17EEAB
:104DB000902A7B6C13447B6397ED0E0A0EF0C8FEBD
:104DC000B0EE407AFB6B07EE903AF8EEE77A67EECA
:104DD000277AFDEEE77A17EE902A3B6C13443B638B
:104DE0007B6C98B23B6C99B27B6B9AB23B6B9BB27B
:104DF0000124009402F0B7FED7ED0E7A1FED477A3A
:104E000077EE877AC7ED0B7AD7ED0E7A1FED4B7AE6
:104E100077EEC77AC7ED0A7A05237B627B6B9CB27B
:104E20003B6B9DB297ED0B0A0EF05AFEB0EE407A46
:104E30007B6A07EE903AF8EEE77A67EE277AFDEEA6
:104E4000E77A17EE903A9AB27B6B9BB213449EB20C
:104E500097ED0B0A0EF07CFEB0EE407A7B6A07EE0F
:104E6000903AF8EEE77A67EE277AFDEEE77A17EEEA
:104E7000903A9AB23B6B9BB213449BB201220092D0
:104E800032462946204602F06EFE7B6B9CB23B6B9D
:104E90009DB297ED0A0A0EF023FEB0EE407A7B6ACF
:104EA00007EE903AF8EEE77A67EE277AFDEEE77ABA
:104EB00017EE903A9AB27B6B9BB213449EB297ED79
:104EC0000A0A0EF045FEB0EE407A7B6A07EE903A91
:104ED000F8EEE77A67EE277AFDEEE77A17EE903A7A
:104EE0009AB23B6B9BB213449BB2012200923246B2
:104EF0002946204602F037FE02F0C8FC00BFBC374E
:104F0000BD46BDE8F08300BF80B582B000AF034668
:104F1000FB802D4B1B78002B01D1002350E02A4B46
:104F20001B78012B30D1FB88802B03D0FB88B3F595
:104F3000007F0BD1254B1B78002B0CBF01230023D6
:104F4000DBB21A46214B1A70012339E0FB88B3F516
:104F5000806F34D11D4B1B78002B05D11A4B0222D8
:104F60001A7003F061F90DE0174B00221A7003F07C
:104F70005BF9174B64221A70164B1B781A46164BB6
:104F80000121995401231BE00F4B1B78022B16D1F2
:104F9000FB88B3F5806F02D0FB88802B0FD10A4BC2
:104FA00000221A7003F040F9094B64221A70094B71
:104FB0001B781A46084B01219954012300E0012374
:104FC00018460837BD4680BD4D0300205803002019
:104FD000290300204E0300205C03002080B483B02E
:104FE00000AF0346FB71FB79044A0021D15400BF96
:104FF0000C37BD465DF8047B704700BF5C030020A2
:1050000080B586B004AFB623FB714FF0FF33029337
:1050100001230193FB1D00930123E022EC211248A0
:1050200005F04CFE4FF4FA7004F0A8F94FF0FF338E
:10503000029301230193BB1D00930123D022EC2195
:10504000094805F035FF06E008480BF0A9FC4FF4CD
:10505000FA7004F093F9BB79602BF5D100BF00BF63
:105060000837BD4680BD00BFBC2F0020187801085E
:1050700080B586B004AF0023FB710023FB714FF4B1
:105080007A73029301230193FB1D00930123F42201
:10509000EC21044805F012FE034618460837BD46C9
:1050A00080BD00BFBC2F002080B58EB004AF4FF094
:1050B000FF3302931A23019307F10C03009301239A
:1050C0008822EC21604805F0F3FE4FF0FF33029395
:1050D000072301933B1D00930123E122EC215A4851
:1050E00005F0E6FE7B7B1BB21B021AB23B7B1BB2B8
:1050F00013431BB29AB2554B1A80FB7B1BB21B02A7
:105100001AB2BB7B1BB213431AB2514B1A807B7C81
:105110001BB21B021AB23B7C1BB213431AB24D4B9B
:105120001A80FB7C1BB21B021AB2BB7C1BB213435E
:105130001BB29AB2484B1A807B7D1BB21B021AB27B
:105140003B7D1BB213431AB2444B1A80FB7D1BB24A
:105150001B021AB2BB7D1BB213431AB2404B1A801A
:105160007B7E1BB21B021AB23B7E1BB213431AB2E8
:105170003C4B1A80FB7E1BB21B021AB2BB7E1BB2D9
:1051800013431AB2384B1A807B7F1BB21B021AB230
:105190003B7F1BB213431AB2344B1A80FB7F1BB206
:1051A0001B021AB2BB7F1BB213431AB2304B1A80D8
:1051B00097F821301BB21B021AB297F820301BB2AD
:1051C00013431AB22B4B1A8097F823301BB21B02E1
:1051D0001AB297F822301BB213431AB2264B1A8028
:1051E00097F825301A46254B1A807B791BB21B0293
:1051F0001AB23B791BB213431AB2214B1A80BB7906
:105200001A46204B1A80FB791BB21B011AB23B7A5B
:105210001BB203F00F031BB213431AB21A4B1A80CE
:105220007B7A1BB21B011AB23B7A1B09DBB21BB2A1
:1052300013431AB2154B1A80BB7A1AB2144B1A8058
:1052400000BF2837BD4680BDBC2F00205C04002075
:1052500064040020660400205E040020680400202E
:105260006A0400206C0400206E04002070040020FA
:1052700072040020740400207604002060040020E2
:1052800078040020620400207A0400207C040020BE
:105290007E04002090B58DB004AF78604FF47A732F
:1052A00002930823019307F1180300930123F722C7
:1052B000EC21144805F0FCFD3B7E1A037B7E1B01AC
:1052C0001343BA7E1209D2B213433B61FB7E1A0329
:1052D0003B7F1B0113437A7F1209D2B21343FB6059
:1052E000BB7F1B02FA7F13437B617B681C4607F17F
:1052F0000C0393E8070084E8070078682437BD466C
:1053000090BD00BFBC2F002080B487B000AF786094
:105310007B68DA10194B1B885B00D31A184AB2F964
:10532000002002FB03F3DB127B617B681B11134A35
:1053300012889B1A7A68121110490988521A02FBC6
:1053400003F31B130F4AB2F9002002FB03F39B1374
:105350003B617A693B6913440B4A13600A4B1A6834
:1053600013469B00134480331B12FB60FB681846F6
:105370001C37BD465DF8047B704700BF5C0400200D
:105380006404002066040020800400202DE9B04F52
:10539000CAB000AFC7F80C01AC4B1B68DA171C464B
:1053A0001546B4F5FA3A45F1FF3BC7E948ABD7F8E3
:1053B0002421D7F8203103FB02F1D7F82421D7F8B4
:1053C000203102FB03F3CA18D7F82031A3FB03896D
:1053D00002EB090399469E4BB3F900301BB2DA1772
:1053E000C7F8B830C7F8BC20D7E92E01034603FB45
:1053F00009F20B4608FB03F313440246A8FB022103
:10540000C7F8C410C7F8C020D7F8C4201344C7F8A1
:10541000C430D7E93034C7E94634C7E946348D4B48
:10542000B3F900301BB2DA17C7F8B030C7F8B420B0
:10543000D7F82031D7E92C452A4602FB03F2D7F8EA
:105440002431214601FB03F31A44D7F820312146C9
:10545000A3FB0131C7F80411C7F80031D7F80431B4
:10546000D318C7F804314FF000004FF00001D7E91E
:1054700040452B465904234641EAD331234658047C
:10548000D7E9462314183C644B417B64D7E91034B8
:10549000C7E94634704BB3F900301BB2DA17C7F8CE
:1054A000A830C7F8AC204FF000004FF00001D7F84B
:1054B000A830D9000020D7E946231418BC634B411B
:1054C000FB63D7E90E34C7E94634D7F82421D7F86F
:1054D000203103FB02F1D7F82421D7F8203102FB59
:1054E00003F3CA18D7F82031A3FB0331C7F8FC1027
:1054F000C7F8F830D7F8FC30D318C7F8FC30574B52
:10550000B3F900301BB2DA17C7F8A030C7F8A420EF
:10551000D7E93E452B46D7E92889424602FB03F2EC
:105520004B46214601FB03F3134422464146A2FBAE
:105530000121C7F8F410C7F8F020D7F8F42013447D
:10554000C7F8F4304FF000004FF00001D7E93C45B8
:105550002346180A2B4640EA03602B461912404B9B
:10556000B3F900301BB2DA17C7F89830C7F89C209F
:10557000D7F82031D7E926894A4602FB03F2D7F84B
:105580002431444604FB03F31A44D7F8203144463F
:10559000A3FB0434C7F8EC40C7F8E830D7F8EC3088
:1055A000D318C7F8EC304FF000024FF00003D7E9F2
:1055B0003A894C462303444643EA145344462203A3
:1055C00084183C6341EB03037B63D7E90C34C7E9E0
:1055D0004834D7E9482303F50041C7F89410C7F8C9
:1055E0009020204B1B889BB20022C7F88830C7F858
:1055F0008C20D7E924452B46D7E92289424602FB75
:1056000003F24B46214601FB03F313442246414675
:10561000A2FB0121C7F8E410C7F8E020D7F8E42086
:105620001344C7F8E4304FF000024FF00003D7E90D
:10563000384529464A102946CB17C7E94823D7E9F8
:105640004823134310D1002351E100BF8004002000
:10565000700400206E0400206C0400206A04002006
:10566000680400205E040020D7F80C31C3F58013D5
:10567000DA17BB62FA62D7E90A34C7E94434D7F8CB
:1056800010315B10C7F88430D7F81031DB07C7F84A
:105690008030D7E94623D7E920452146891AB967E2
:1056A000294661EB0303FB67D7E91E4522462B46DB
:1056B000911839625B417B62D7E908232146511872
:1056C000B96129464B41FB614FF000024FF00003E6
:1056D000D7E9068949468B01414643EA9163414631
:1056E0008A01414689183961494643EB01017961D4
:1056F0004FF000024FF00003D7E9048949468B00C0
:10570000414643EA917341468A00104619460346D2
:1057100022469B18BB600B462A4642EB0303FB6004
:105720004FF000024FF00003D7E9028949468B0091
:10573000414643EA917341468A00104619460346A2
:1057400022469B183B672B460A4642EB03037B67C6
:10575000D7E94823D7E91C01FBF796FA02460B4626
:10576000C7E94423654BB3F900301BB2DA17BB66B7
:10577000FA66D7E944234FF000004FF00001500BC8
:1057800040EAC3405913D7E91A452B4600FB03F200
:10579000234603FB01F313442246A2FB0021C7F872
:1057A000DC10C7F8D820D7F8DC201344C7F8DC3069
:1057B000D7E944234FF000004FF00001500B40EABE
:1057C000C3405913D7E936452B4600FB03F2234665
:1057D00003FB01F313442246A2FB0021C7F8D410B7
:1057E000C7F8D020D7F8D4201344C7F8D4304FF0EE
:1057F00000024FF00003D7E9344521464A0E2946FE
:1058000042EAC11229464B16C7E948233C4BB3F97B
:1058100000301BB2DA173B667A66D7F81031D7E949
:1058200018452A4602FB03F2D7F81431214601FB42
:1058300003F31344D7F810212146A2FB0121C7F836
:10584000CC10C7F8C820D7F8CC201344C7F8CC3008
:105850004FF000024FF00003D7E932452146CA0C51
:10586000294642EA41322946CB14C7E94623D7E903
:105870004401D7E948238418BC6541EB0303FB6569
:10588000D7E94623D7E916452146891839652946BF
:1058900043EB010179654FF000004FF00001D7E9BB
:1058A00014452346180A2B4640EA03602B4619127A
:1058B000144BB3F900301BB2DA17BB64FA644FF033
:1058C00000024FF00003D7E912894C4623014446F9
:1058D00043EA14734446220184183C6041EB0303FD
:1058E0007B60D7E90034C7E94434D7F81031184653
:1058F00007F59477BD46BDE8B08F00BF7604002061
:10590000740400207204002080B485B000AF786079
:105910002C4B1B68A3F59633FB607B689A032A4BDC
:10592000B3F900301B05D21A284BB3F900301946E1
:10593000FB6801FB03F3D31A03F58043DB13244A0E
:10594000B2F900201146FA6801FB02F292122149D5
:1059500009880846F96800FB01F1C91201F5004108
:1059600001FB02F2921202F500121B49B1F900107C
:1059700001FB02F202F50052921302FB03F3FB60FB
:10598000FB68DB13FA68D21302FB03F3DB11134A43
:10599000128802FB03F31B11FA68D31AFB60FB6841
:1059A00023EAE373FB60FB68B3F1C85FA8BF4FF065
:1059B000C853FB60FB681B1318461437BD465DF8DF
:1059C000047B7047800400207A0400207C040020BF
:1059D0007E0400206204002078040020600400207F
:1059E00080B586B000AF786007F10C031846FFF76A
:1059F00051FCFFF759FBFB681846FFF785FC03468F
:105A00001846FAF78FFD4FF00002614BFAF71EFFC0
:105A100002460B4610461946FBF7E6F802467B683D
:105A20001A603B691846FFF7B1FC03461846FAF7BF
:105A300069FD4FF00002574BFAF708FF02460B468C
:105A400010461946FBF7D0F802467B685A607B691E
:105A50001846FFF759FF03461846FAF753FD4FF073
:105A600000024D4BFAF7F2FE02460B46104619466D
:105A7000FBF7BAF802467B689A607B685B68184659
:105A8000FAF762FD36A3D3E90023FAF7DFFE0246F8
:105A90000B4643EC172B9FED341BB0EE470AF0EE9C
:105AA000670A0DF0C5FE53EC102B4FF000003B4988
:105AB000FAF7EAFB02460B46104619462CA3D3E937
:105AC0000023FAF799FD02460B4610461946FBF7EC
:105AD0008BF802467B68DA607B685B681846FAF7E9
